{"contracts/MinesweeperBattle.sol":{"MinesweeperBattle":{"abi":[{"inputs":[],"stateMutability":"nonpayable","type":"constructor"},{"inputs":[],"name":"EnforcedPause","type":"error"},{"inputs":[],"name":"ExpectedPause","type":"error"},{"inputs":[{"internalType":"address","name":"owner","type":"address"}],"name":"OwnableInvalidOwner","type":"error"},{"inputs":[{"internalType":"address","name":"account","type":"address"}],"name":"OwnableUnauthorizedAccount","type":"error"},{"inputs":[],"name":"ReentrancyGuardReentrantCall","type":"error"},{"anonymous":false,"inputs":[{"indexed":true,"internalType":"uint256","name":"gameId","type":"uint256"},{"indexed":true,"internalType":"address","name":"creator","type":"address"},{"indexed":false,"internalType":"uint256","name":"entryFee","type":"uint256"},{"indexed":false,"internalType":"uint8","name":"maxPlayers","type":"uint8"},{"indexed":false,"internalType":"bool","name":"isPublic","type":"bool"}],"name":"GameCreated","type":"event"},{"anonymous":false,"inputs":[{"indexed":true,"internalType":"uint256","name":"gameId","type":"uint256"},{"indexed":false,"internalType":"address[]","name":"winners","type":"address[]"},{"indexed":false,"internalType":"uint256","name":"prizePerWinner","type":"uint256"}],"name":"GameFinished","type":"event"},{"anonymous":false,"inputs":[{"indexed":true,"internalType":"uint256","name":"gameId","type":"uint256"},{"indexed":false,"internalType":"uint256","name":"timestamp","type":"uint256"}],"name":"GameStarted","type":"event"},{"anonymous":false,"inputs":[{"indexed":true,"internalType":"address","name":"previousOwner","type":"address"},{"indexed":true,"internalType":"address","name":"newOwner","type":"address"}],"name":"OwnershipTransferred","type":"event"},{"anonymous":false,"inputs":[{"indexed":false,"internalType":"address","name":"account","type":"address"}],"name":"Paused","type":"event"},{"anonymous":false,"inputs":[{"indexed":true,"internalType":"uint256","name":"gameId","type":"uint256"},{"indexed":true,"internalType":"address","name":"player","type":"address"}],"name":"PlayerEliminated","type":"event"},{"anonymous":false,"inputs":[{"indexed":true,"internalType":"uint256","name":"gameId","type":"uint256"},{"indexed":true,"internalType":"address","name":"player","type":"address"}],"name":"PlayerJoined","type":"event"},{"anonymous":false,"inputs":[{"indexed":true,"internalType":"uint256","name":"gameId","type":"uint256"},{"indexed":false,"internalType":"uint8","name":"round","type":"uint8"}],"name":"RoundCompleted","type":"event"},{"anonymous":false,"inputs":[{"indexed":true,"internalType":"uint256","name":"gameId","type":"uint256"},{"indexed":true,"internalType":"address","name":"player","type":"address"},{"indexed":false,"internalType":"uint8","name":"x","type":"uint8"},{"indexed":false,"internalType":"uint8","name":"y","type":"uint8"},{"indexed":false,"internalType":"bool","name":"hitMine","type":"bool"}],"name":"TileRevealed","type":"event"},{"anonymous":false,"inputs":[{"indexed":true,"internalType":"uint256","name":"gameId","type":"uint256"},{"indexed":true,"internalType":"address","name":"player","type":"address"}],"name":"TurnSkipped","type":"event"},{"anonymous":false,"inputs":[{"indexed":false,"internalType":"address","name":"account","type":"address"}],"name":"Unpaused","type":"event"},{"inputs":[{"internalType":"uint256","name":"_gameId","type":"uint256"}],"name":"claimWinnings","outputs":[],"stateMutability":"nonpayable","type":"function"},{"inputs":[{"internalType":"uint256","name":"_entryFee","type":"uint256"},{"internalType":"uint8","name":"_maxPlayers","type":"uint8"},{"internalType":"uint256","name":"_turnDuration","type":"uint256"},{"internalType":"bool","name":"_isPublic","type":"bool"}],"name":"createGame","outputs":[{"internalType":"uint256","name":"","type":"uint256"}],"stateMutability":"payable","type":"function"},{"inputs":[{"internalType":"uint256","name":"","type":"uint256"},{"internalType":"address","name":"","type":"address"}],"name":"eliminated","outputs":[{"internalType":"bool","name":"","type":"bool"}],"stateMutability":"view","type":"function"},{"inputs":[{"internalType":"uint256","name":"","type":"uint256"},{"internalType":"uint256","name":"","type":"uint256"}],"name":"gameMoves","outputs":[{"internalType":"address","name":"player","type":"address"},{"internalType":"uint8","name":"x","type":"uint8"},{"internalType":"uint8","name":"y","type":"uint8"},{"internalType":"bool","name":"hitMine","type":"bool"},{"internalType":"uint256","name":"timestamp","type":"uint256"}],"stateMutability":"view","type":"function"},{"inputs":[{"internalType":"uint256","name":"","type":"uint256"}],"name":"games","outputs":[{"internalType":"uint256","name":"id","type":"uint256"},{"internalType":"address","name":"creator","type":"address"},{"internalType":"uint256","name":"entryFee","type":"uint256"},{"internalType":"uint256","name":"prizePool","type":"uint256"},{"internalType":"uint8","name":"maxPlayers","type":"uint8"},{"internalType":"uint8","name":"currentRound","type":"uint8"},{"internalType":"uint8","name":"currentTurnIndex","type":"uint8"},{"internalType":"uint256","name":"turnDeadline","type":"uint256"},{"internalType":"uint256","name":"turnDuration","type":"uint256"},{"internalType":"bool","name":"isPublic","type":"bool"},{"internalType":"bool","name":"started","type":"bool"},{"internalType":"bool","name":"finished","type":"bool"},{"internalType":"bytes32","name":"minesSeed","type":"bytes32"},{"internalType":"uint8","name":"gridSize","type":"uint8"},{"internalType":"uint8","name":"mineCount","type":"uint8"}],"stateMutability":"view","type":"function"},{"inputs":[],"name":"getActiveGames","outputs":[{"internalType":"uint256[]","name":"","type":"uint256[]"}],"stateMutability":"view","type":"function"},{"inputs":[{"internalType":"uint256","name":"_gameId","type":"uint256"}],"name":"getGameMoves","outputs":[{"components":[{"internalType":"address","name":"player","type":"address"},{"internalType":"uint8","name":"x","type":"uint8"},{"internalType":"uint8","name":"y","type":"uint8"},{"internalType":"bool","name":"hitMine","type":"bool"},{"internalType":"uint256","name":"timestamp","type":"uint256"}],"internalType":"struct MinesweeperBattle.PlayerMove[]","name":"","type":"tuple[]"}],"stateMutability":"view","type":"function"},{"inputs":[{"internalType":"uint256","name":"_gameId","type":"uint256"}],"name":"getGameState","outputs":[{"internalType":"uint256","name":"id","type":"uint256"},{"internalType":"address","name":"creator","type":"address"},{"internalType":"address[]","name":"players","type":"address[]"},{"internalType":"uint256","name":"entryFee","type":"uint256"},{"internalType":"uint256","name":"prizePool","type":"uint256"},{"internalType":"uint8","name":"maxPlayers","type":"uint8"},{"internalType":"uint8","name":"currentRound","type":"uint8"},{"internalType":"address","name":"currentPlayer","type":"address"},{"internalType":"uint256","name":"turnDeadline","type":"uint256"},{"internalType":"uint256","name":"turnDuration","type":"uint256"},{"internalType":"bool","name":"isPublic","type":"bool"},{"internalType":"bool","name":"started","type":"bool"},{"internalType":"bool","name":"finished","type":"bool"},{"internalType":"uint8","name":"gridSize","type":"uint8"},{"internalType":"uint8","name":"mineCount","type":"uint8"}],"stateMutability":"view","type":"function"},{"inputs":[{"internalType":"uint256","name":"_gameId","type":"uint256"},{"internalType":"address","name":"_player","type":"address"}],"name":"getPlayerStatus","outputs":[{"internalType":"bool","name":"isInGame","type":"bool"},{"internalType":"bool","name":"isEliminated","type":"bool"},{"internalType":"bool","name":"hasClaimed","type":"bool"}],"stateMutability":"view","type":"function"},{"inputs":[{"internalType":"uint256","name":"","type":"uint256"},{"internalType":"address","name":"","type":"address"}],"name":"hasClaimedWinnings","outputs":[{"internalType":"bool","name":"","type":"bool"}],"stateMutability":"view","type":"function"},{"inputs":[{"internalType":"uint256","name":"","type":"uint256"},{"internalType":"address","name":"","type":"address"}],"name":"hasJoined","outputs":[{"internalType":"bool","name":"","type":"bool"}],"stateMutability":"view","type":"function"},{"inputs":[{"internalType":"uint256","name":"_gameId","type":"uint256"},{"internalType":"uint8","name":"x","type":"uint8"},{"internalType":"uint8","name":"y","type":"uint8"}],"name":"isTileRevealed","outputs":[{"internalType":"bool","name":"","type":"bool"}],"stateMutability":"view","type":"function"},{"inputs":[{"internalType":"uint256","name":"_gameId","type":"uint256"}],"name":"joinGame","outputs":[],"stateMutability":"payable","type":"function"},{"inputs":[],"name":"owner","outputs":[{"internalType":"address","name":"","type":"address"}],"stateMutability":"view","type":"function"},{"inputs":[],"name":"pause","outputs":[],"stateMutability":"nonpayable","type":"function"},{"inputs":[],"name":"paused","outputs":[{"internalType":"bool","name":"","type":"bool"}],"stateMutability":"view","type":"function"},{"inputs":[],"name":"renounceOwnership","outputs":[],"stateMutability":"nonpayable","type":"function"},{"inputs":[{"internalType":"uint256","name":"_gameId","type":"uint256"},{"internalType":"uint8","name":"x","type":"uint8"},{"internalType":"uint8","name":"y","type":"uint8"}],"name":"revealTile","outputs":[],"stateMutability":"nonpayable","type":"function"},{"inputs":[{"internalType":"uint256","name":"","type":"uint256"},{"internalType":"uint8","name":"","type":"uint8"},{"internalType":"uint8","name":"","type":"uint8"}],"name":"revealedTiles","outputs":[{"internalType":"bool","name":"","type":"bool"}],"stateMutability":"view","type":"function"},{"inputs":[{"internalType":"uint256","name":"_gameId","type":"uint256"}],"name":"skipTurn","outputs":[],"stateMutability":"nonpayable","type":"function"},{"inputs":[{"internalType":"uint256","name":"_gameId","type":"uint256"}],"name":"startGame","outputs":[],"stateMutability":"nonpayable","type":"function"},{"inputs":[],"name":"totalFeesCollected","outputs":[{"internalType":"uint256","name":"","type":"uint256"}],"stateMutability":"view","type":"function"},{"inputs":[{"internalType":"address","name":"newOwner","type":"address"}],"name":"transferOwnership","outputs":[],"stateMutability":"nonpayable","type":"function"},{"inputs":[],"name":"unpause","outputs":[],"stateMutability":"nonpayable","type":"function"},{"inputs":[],"name":"withdrawFees","outputs":[],"stateMutability":"nonpayable","type":"function"}],"evm":{"bytecode":{"linkReferences":{},"object":"6080806040523461007e5733156100685760008054336001600160a01b03198216811783556040519290916001600160a01b0316907f8be0079c531659141344cd1fd0a4f28419497f9722a3daafe3b4186f6b6457e09080a36001805561228e90816100848239f35b631e4fbdf760e01b815260006004820152602490fd5b600080fdfe60808060405260048036101561001457600080fd5b600091823560e01c908163117a5b901461181d57508063185644fd146112545780631b76929c146116bc5780632a02ac63146116445780633f4ba83a146115da578063476343ee1461155c57806350671f9b146112925780635738dcc6146112545780635c975abb1461123157806360c6d8ae14611214578063677bd9ff14610fd55780636819471914610f8c5780636b28074714610e60578063715018a614610e065780638456cb5914610dab5780638da5cb5b14610d84578063958b3bd314610cfe578063ca4fab0614610cb5578063ce371cbd14610b6d578063d7fb1f6314610b24578063e5ed1d59146109b7578063efaa55a0146107be578063f043145b1461036f578063f2fde38b146102e35763ffde0c741461013557600080fd5b346102df5760203660031901126102df578035825260056020526040822090600882015460ff8160081c16908180926102d1575b806102c4575b156102bd5761018b60ff600586015460101c1660028601611a3d565b905460039190911b1c6001600160a01b0316915b84549460018060a01b03600182015416966002820194600383015496830154600584015490600685015493600a600787015496015498604051908192839260208354918281520192825260208220915b81811061029b57505050036102049082611b8e565b6040519b8c9b8c5260208c01526101e08060408d01528b0161022591611978565b9860608b015260808a015260ff811660a08a015260081c60ff1660c0890152600160a01b600190031660e088015261010087015261012086015260ff82161515610140860152151561016085015260101c60ff16151561018084015260ff81166101a084015260081c60ff166101c08301520390f35b82546001600160a01b03168452859450602090930192600192830192016101ef565b849161019f565b506002840154151561016f565b5060ff8160101c1615610169565b5080fd5b50346102df5760203660031901126102df576001600160a01b038135818116929083900361036b576103136119b5565b8215610353575082546001600160a01b0319811683178455167f8be0079c531659141344cd1fd0a4f28419497f9722a3daafe3b4186f6b6457e08380a380f35b604051631e4fbdf760e01b8152908101849052602490fd5b8380fd5b50346102df5761037e366118fd565b610389939193611ac4565b610391611aa6565b8285526020906005825260408620906008820154916103c160ff9384808260081c1691826107b0575b5050611af4565b858852600684526040882033895284526103e18360408a20541615611b32565b6103f783600583015460101c1660028301611a3d565b60018060a09493941b03809354339260031b1c160361077c576006810154421161074957600a015487841692908416808410908161073d575b501561070357868952600a855260408920838a528552604089209380821694858b52865260408a2054166106c75761049390878a52600a865260408a20848b52865260408a20858b52865260408a20986001998a60ff1982541617905588611dde565b928689526009855260408920604051906104ac82611b72565b338252868201858152604083018481526060840190881515968783526080860194428652805490600160401b8210156106b2578f820181556104ee9190611930565b96909661069f575186549451925193516001600160b81b031990951691161760a09190911b60ff60a01b161760a89190911b60ff60a81b161790151560b01b60ff60b01b1617825551908901556040805193845285840191909152820152339085907f3054c4059fdafd84bd2ade27c80de3fc92a1e1cd8503fbc3d8425eb00460f8fc90606090a3156106945782855260068152604085203386528152604085208460ff1982541617905533837f638a014c19f58a705adfdf3c8350f6eecbcab57edc63f1112fef5828840730eb8780a38285526005815260408520916105d484612122565b9285845111156000146106875760088101805462ff00001916620100001790558101549081158280048714171561067457509161065f9161063a8460647fbb46215af351898408a114360f0c9b357ef9e966c86f58086e64a66b0e6ba4de960490611bd0565b8251801561066c5761064b91611bb0565b604051938493604085526040850190611978565b918301520390a25b805580f35b50508661064b565b634e487b7160e01b875260119052602486fd5b5050505061066790611f16565b505061066790611f16565b50634e487b7160e01b8f528e8c5260248ffd5b5050634e487b7160e01b8f5260418c5260248ffd5b60405162461bcd60e51b81528087018690526015602482015274151a5b1948185b1c9958591e481c995d99585b1959605a1b6044820152606490fd5b60405162461bcd60e51b81528087018690526013602482015272496e76616c696420636f6f7264696e6174657360681b6044820152606490fd5b90508482161038610430565b60405162461bcd60e51b8152808701869052600c60248201526b151d5c9b88195e1c1a5c995960a21b6044820152606490fd5b60405162461bcd60e51b8152808701869052600d60248201526c2737ba103cb7bab9103a3ab93760991b6044820152606490fd5b60101c1615905084386103ba565b50602090816003193601126109b3578035916107d8611ac4565b6107e0611aa6565b828452600581526040842090600882015460ff8160081c166109785760101c60ff166109455760028201805460ff6005850154161115610915578486526007825260408620338752825260ff6040872054166108e057600383015434036108a65761084c903390611a55565b8385526007815260408520903386525260408420600160ff1982541617905501610877348254611ae7565b905533907f87969bc7faf902221a147b95ceba76e011c5efb0339a0a8ee7a2bb82d9cfbbd68380a36001805580f35b60405162461bcd60e51b81528085018390526013602482015272496e636f727265637420656e7472792066656560681b6044820152606490fd5b60405162461bcd60e51b8152808501839052600e60248201526d105b1c9958591e481a9bda5b995960921b6044820152606490fd5b60405162461bcd60e51b8152808501839052600960248201526811d85b5948199d5b1b60ba1b6044820152606490fd5b826064916040519162461bcd60e51b8352820152600d60248201526c11d85b5948199a5b9a5cda1959609a1b6044820152fd5b60405162461bcd60e51b8152808501839052601460248201527311d85b5948185b1c9958591e481cdd185c9d195960621b6044820152606490fd5b8280fd5b50346102df576020806003193601126109b3578135916109d5611ac4565b6109dd611aa6565b828452600582526040842060018101549091906001600160a01b03163303610ae757600882019081549060ff8260081c16610ab15760028085015410610a785750906101007fa2dfaa3573b86004ec9d4d4abe5068d942579c59da4da8cd0d9e45e71a393bc194939261ff0019161790556006610a5e600783015442611ae7565b910155610a6a83611c87565b604051428152a26001805580f35b60405162461bcd60e51b815290810185905260126024820152714e6f7420656e6f75676820706c617965727360701b6044820152606490fd5b60405162461bcd60e51b8152908101859052600f60248201526e105b1c9958591e481cdd185c9d1959608a1b6044820152606490fd5b60405162461bcd60e51b8152908101839052601660248201527513db9b1e4818dc99585d1bdc8818d85b881cdd185c9d60521b6044820152606490fd5b50346102df5760403660031901126102df57604060209260ff92610b46611962565b90358252600885528282206001600160a01b03909116825284522054604051911615158152f35b509034610cb2576020366003190112610cb2578135610b8a611ac4565b610b92611aa6565b808252600560205260408220610bba600882015460ff8160081c169081610ca3575b50611af4565b818352600660205260408320338452602052610bdd60ff60408520541615611b32565b6002810160ff600583015460101c1694610bf78683611a3d565b90546001600160a01b039460039290921b1c84163314908115610c95575b5015610c635750610c5c9394610c2a91611a3d565b90549060031b1c16817f78d563416c0d6c2454e9c81222ee1e58f6c3ff4dfcfa798d85d391e57023ecc98580a3611f16565b6001805580f35b60649060206040519162461bcd60e51b8352820152600b60248201526a043616e6e6f7420736b69760ac1b6044820152fd5b600691500154421138610c15565b60ff915060101c161538610bb4565b80fd5b50346102df5760403660031901126102df57604060209260ff92610cd7611962565b90358252600685528282206001600160a01b03909116825284522054604051911615158152f35b50346102df5760403660031901126102df579060609135610d1d611962565b9181815260ff6040602092600784528181209560018060a01b03169586825284528282822054169585825260068552828220818352855283838320541695825260088552828220908252845220541691604051931515845215159083015215156040820152f35b8234610cb25780600319360112610cb257546040516001600160a01b039091168152602090f35b8234610cb25780600319360112610cb257610dc46119b5565b610dcc611aa6565b600160ff1960025416176002557f62e78cea01bee320cd4e420270b5ea74000d11b0c9f74754ebdbfc544b05a2586020604051338152a180f35b8234610cb25780600319360112610cb257610e1f6119b5565b80546001600160a01b03198116825581906001600160a01b03167f8be0079c531659141344cd1fd0a4f28419497f9722a3daafe3b4186f6b6457e08280a380f35b509034610cb257602091826003193601126102df57829035825260098152604082208054610e8d81611c5b565b90610e9b6040519283611b8e565b8082528382018093865284862086915b838310610f2a57505050506040519280840191818552518092526040840192945b828110610ed95784840385f35b855180516001600160a01b031685528083015160ff9081168685015260408083015190911690860152606080820151151590860152608090810151908501529481019460a090930192600101610ecc565b60028760019260409a9997989a51610f4181611b72565b8554858060a01b038116825260ff90818160a01c1685840152818160a81c16604084015260b01c16151560608201528486015460808201528152019201920191909694939596610eab565b50346102df5760403660031901126102df57604060209260ff92610fae611962565b90358252600785528282206001600160a01b03909116825284522054604051911615158152f35b50346102df57602090816003193601126109b357803591610ff4611ac4565b828452600581526040842060ff600882015460101c16156111dc578385526006825260408520338652825260ff6040862054166111a0578385526007825260408520338652825260ff6040862054161561116d578385526008825260408520338652825260ff6040862054166111375761106d84612122565b908151156111065783015491828004600114831517156110f35785808681966110e06110d988859886986110b36110ab6064610c5c9e048095611bd0565b835190611bb0565b9688526008815260408820903389525260408720600160ff198254161790555190611bb0565b8254611ae7565b9055335af16110ed611bdd565b50611c1d565b634e487b7160e01b865260118452602486fd5b60405162461bcd60e51b8152808501849052600a6024820152694e6f2077696e6e65727360b01b6044820152606490fd5b60405162461bcd60e51b8152808401839052600f60248201526e105b1c9958591e4818db185a5b5959608a1b6044820152606490fd5b60405162461bcd60e51b8152808401839052600c60248201526b2737ba103090383630bcb2b960a11b6044820152606490fd5b60405162461bcd60e51b81528084018390526015602482015274141b185e595c881dd85cc8195b1a5b5a5b985d1959605a1b6044820152606490fd5b60405162461bcd60e51b8152808401839052601160248201527011d85b59481b9bdd08199a5b9a5cda1959607a1b6044820152606490fd5b50346102df57816003193601126102df5760209054604051908152f35b8234610cb25780600319360112610cb257602060ff600254166040519015158152f35b8234610cb25760ff604060209261126a366118fd565b918352600a865284848420911683528552838383209116825284522054166040519015158152f35b50906080366003190112610cb257813560249081359160ff831680930361036b576044359260643591821515809303611558576112cd611ac4565b6112d5611aa6565b60028210158061154d575b1561151357600a85101580611508575b156114cd57833403611495578315611452576003549461130f866119e1565b60035585875260056020526113816040882087815560018101336bffffffffffffffffffffffff60a01b82541617905586600382015560058101805493600783015561010086600884019560ff19968781541660ff8c1617905561ffff191617179055868a8201556002339101611a55565b85875260076020526040872033885260205260016040882091825416179055600b5496600160401b8810156114415750506113c486600160209801600b55611a06565b81549060031b9086821b91600019901b1916179055604051928352858301526040820152817fecbf611c0167855f525028668676ec0497e5aabb4941b80e5c9c6919a17ea0c360603393a360405191817f87969bc7faf902221a147b95ceba76e011c5efb0339a0a8ee7a2bb82d9cfbbd6339280a3600180558152f35b634e487b7160e01b87526041905285fd5b86601a60649260206040519362461bcd60e51b85528401528201527f456e74727920666565206d75737420626520706f7369746976650000000000006044820152fd5b86601260649260206040519362461bcd60e51b85528401528201527108adce8e4f240cccaca40dad2e6dac2e8c6d60731b6044820152fd5b86601560649260206040519362461bcd60e51b85528401528201527424b73b30b634b2103a3ab93710323ab930ba34b7b760591b6044820152fd5b50601e8511156112f0565b86601460649260206040519362461bcd60e51b855284015282015273125b9d985b1a59081c1b185e595c8818dbdd5b9d60621b6044820152fd5b50600a8211156112e0565b8580fd5b50346102df57816003193601126102df576115756119b5565b80549081156115a05782808061159d948180955560018060a01b038254165af16110ed611bdd565b80f35b60649060206040519162461bcd60e51b835282015260136024820152724e6f206665657320746f20776974686472617760681b6044820152fd5b50346102df57816003193601126102df576115f36119b5565b6002549060ff821615611635575060ff19166002557f5db9ee0a495bf2e6ff9c91a7834c1ba4fdd244a5e8aa4e537bd38aeae4b073aa6020604051338152a180f35b604051638dfc202b60e01b8152fd5b509034610cb2576040366003190112610cb25760243591358152600960205260408120908154831015610cb25760a061167d8484611930565b506001815491015460ff60405192600180861b03811684528181861c166020850152818160a81c16604085015260b01c16151560608301526080820152f35b8234610cb25780600319360112610cb257600b5481805b8281106117c957506116fd6116e784611c5b565b936116f56040519586611b8e565b808552611c5b565b6020928484019291601f190136843781825b8281106117575750505060405193838594850191818652518092526040850193925b82811061174057505050500390f35b835185528695509381019392810192600101611731565b611765819795969497611a06565b9054600391821b1c88526005855260ff600860408a20015460101c161561179b575b50611791906119e1565b959294939561170f565b81926117c2916117ad61179194611a06565b9054911b1c6117bc8289611c73565b526119e1565b9190611787565b6117d581949294611a06565b90549060031b1c8452600560205260ff600860408620015460101c1615611808575b611800906119e1565b9290926116d3565b90611815611800916119e1565b9190506117f7565b919050346109b35760203660031901126109b35760406101e0938235815260056020522080549060018060a01b036001820154169260038201549082015493600583015491600684015495600785015491600886015493600a6009880154970154978a5260208a01526040890152606088015260ff9586848180961660808b0152818160081c1660a08b015260101c1660c089015260e08801526101008701528181161515610120870152818160081c16151561014087015260101c1615156101608501526101808401528181166101a084015260081c166101c0820152f35b606090600319011261192b576004359060243560ff8116810361192b579060443560ff8116810361192b5790565b600080fd5b805482101561194c5760005260206000209060011b0190600090565b634e487b7160e01b600052603260045260246000fd5b602435906001600160a01b038216820361192b57565b90815180825260208080930193019160005b828110611998575050505090565b83516001600160a01b03168552938101939281019260010161198a565b6000546001600160a01b031633036119c957565b60405163118cdaa760e01b8152336004820152602490fd5b60001981146119f05760010190565b634e487b7160e01b600052601160045260246000fd5b600b5481101561194c57600b6000527f0175b7a638427703f0dbe7bb9bbf987a2551717b34e79f33b5b1008d1fa01db90190600090565b805482101561194c5760005260206000200190600090565b8054600160401b811015611a9057611a7291600182018155611a3d565b819291549060031b9160018060a01b03809116831b921b1916179055565b634e487b7160e01b600052604160045260246000fd5b60ff60025416611ab257565b60405163d93c066560e01b8152600490fd5b600260015414611ad5576002600155565b604051633ee5aeb560e01b8152600490fd5b919082018092116119f057565b15611afb57565b60405162461bcd60e51b815260206004820152600f60248201526e47616d65206e6f742061637469766560881b6044820152606490fd5b15611b3957565b60405162461bcd60e51b8152602060048201526011602482015270141b185e595c88195b1a5b5a5b985d1959607a1b6044820152606490fd5b60a0810190811067ffffffffffffffff821117611a9057604052565b90601f8019910116810190811067ffffffffffffffff821117611a9057604052565b8115611bba570490565b634e487b7160e01b600052601260045260246000fd5b919082039182116119f057565b3d15611c18573d9067ffffffffffffffff8211611a905760405191611c0c601f8201601f191660200184611b8e565b82523d6000602084013e565b606090565b15611c2457565b60405162461bcd60e51b815260206004820152600f60248201526e151c985b9cd9995c8819985a5b1959608a1b6044820152606490fd5b67ffffffffffffffff8111611a905760051b60200190565b805182101561194c5760209160051b010190565b9060009180835260056020526040832090611ca56002830154611d87565b90816005850192600160ff855460081c1611611d4c575b50600a8501805461ffff191660ff9093169290921760089190911b61ff00161790555b54604051906020820192448452426040840152606083015260ff60f81b9060f01b1660808201524360818201526081815260c0810181811067ffffffffffffffff821117611d3857600993949550604052519020910155565b634e487b7160e01b86526041600452602486fd5b60ff915016607881029080820460781490151715611d73576064900460ff16611cdf611cbc565b634e487b7160e01b87526011600452602487fd5b6002811115611dcb576004811115611dc2576006811115611dba5760081015611db257600c90601290565b600a90600c90565b506008908190565b50600690600590565b50600590600390565b8115611bba570690565b91929092600092835260209360058552604093848120948196600a8701549060ff938483169384800293858504861486151715611ef1576009839c959b0154945b8b8d1080611ee3575b15611ed3578c835186810191888352858201528481526060810181811067ffffffffffffffff821117611ebf57855251902088611e748982611e6a8286611dd4565b169360081c611dd4565b1690898b16149081611eb3575b50611ea157611e99611e9389926119e1565b9d6119e1565b9c9050611e1f565b50505050505050505050915050600190565b9050888b161438611e81565b634e487b7160e01b87526041600452602487fd5b5050509750505050505050915090565b50878260081c168110611e28565b634e487b7160e01b83526011600452602483fd5b60ff1660ff81146119f05760010190565b600081815260056020818152604080842094929360019260029290919081888801858a0187805b611f62575b50505050505050505050506006611f5d600783015442611ae7565b910155565b156120e0575b8260ff8354968a826010998a1c1601828111611d735790611fab83611f94611fb0948289549116611dd4565b885462ff00001916911660101b62ff000016178755565b611f05565b9683548289161015611fc457505088611f3d565b94959650969798999a9b5050505087825288855286838320998a019661203161201b878a5460081c168c7fb8a5eda082a9bead12e2aad412cc2910ce57ba364f92a818c8185e9ca9185c4d8b8a51848152a2611f05565b895461ff00191660089190911b61ff0016178955565b875462ff0000191688558a01975b612065575b505050505050505061205590611c87565b6006611f5d600783015442611ae7565b848754831c1688548110806120aa575b156120a45761208661209e91611f05565b885462ff0000191660109190911b62ff000016178855565b8061203f565b50612044565b50898452600687528484206120bf828b611a3d565b905460039190911b1c6001600160a01b031685528752848420548616612075565b8883526006865283832060ff906120fd82855460101c1684611a3d565b905460039190911b1c6001600160a01b0316855287528484205416611f685780611f42565b60008181526005602090815260408083206002018054939485939092845b8681106121fe575061215187611c5b565b9661215e82519889611b8e565b80885261216d601f1991611c5b565b0136838901378493855b87811061218957505050505050505090565b8187526006845282872061219d8287611a3d565b9054600391821b1c6001600160a01b039081168a529186528489205460ff16156121d2575b50506121cd906119e1565b612177565b966121f69183986121e66121cd958a611a3d565b9054911b1c166117bc828d611c73565b9590386121c2565b848652600683528186206122128286611a3d565b905460039190911b1c6001600160a01b0316875283528186205460ff1615612243575b61223e906119e1565b612140565b9661225061223e916119e1565b97905061223556fea2646970667358221220b2fd508712e4460fc2540c4ca20723e0727b011d585fb330218e0e3efdb4e81564736f6c63430008140033","opcodes":"PUSH1 0x80 DUP1 PUSH1 0x40 MSTORE CALLVALUE PUSH2 0x7E JUMPI CALLER ISZERO PUSH2 0x68 JUMPI PUSH1 0x0 DUP1 SLOAD CALLER PUSH1 0x1 PUSH1 0x1 PUSH1 0xA0 SHL SUB NOT DUP3 AND DUP2 OR DUP4 SSTORE PUSH1 0x40 MLOAD SWAP3 SWAP1 SWAP2 PUSH1 0x1 PUSH1 0x1 PUSH1 0xA0 SHL SUB AND SWAP1 PUSH32 0x8BE0079C531659141344CD1FD0A4F28419497F9722A3DAAFE3B4186F6B6457E0 SWAP1 DUP1 LOG3 PUSH1 0x1 DUP1 SSTORE PUSH2 0x228E SWAP1 DUP2 PUSH2 0x84 DUP3 CODECOPY RETURN JUMPDEST PUSH4 0x1E4FBDF7 PUSH1 0xE0 SHL DUP2 MSTORE PUSH1 0x0 PUSH1 0x4 DUP3 ADD MSTORE PUSH1 0x24 SWAP1 REVERT JUMPDEST PUSH1 0x0 DUP1 REVERT INVALID PUSH1 0x80 DUP1 PUSH1 0x40 MSTORE PUSH1 0x4 DUP1 CALLDATASIZE LT ISZERO PUSH2 0x14 JUMPI PUSH1 0x0 DUP1 REVERT JUMPDEST PUSH1 0x0 SWAP2 DUP3 CALLDATALOAD PUSH1 0xE0 SHR SWAP1 DUP2 PUSH4 0x117A5B90 EQ PUSH2 0x181D JUMPI POP DUP1 PUSH4 0x185644FD EQ PUSH2 0x1254 JUMPI DUP1 PUSH4 0x1B76929C EQ PUSH2 0x16BC JUMPI DUP1 PUSH4 0x2A02AC63 EQ PUSH2 0x1644 JUMPI DUP1 PUSH4 0x3F4BA83A EQ PUSH2 0x15DA JUMPI DUP1 PUSH4 0x476343EE EQ PUSH2 0x155C JUMPI DUP1 PUSH4 0x50671F9B EQ PUSH2 0x1292 JUMPI DUP1 PUSH4 0x5738DCC6 EQ PUSH2 0x1254 JUMPI DUP1 PUSH4 0x5C975ABB EQ PUSH2 0x1231 JUMPI DUP1 PUSH4 0x60C6D8AE EQ PUSH2 0x1214 JUMPI DUP1 PUSH4 0x677BD9FF EQ PUSH2 0xFD5 JUMPI DUP1 PUSH4 0x68194719 EQ PUSH2 0xF8C JUMPI DUP1 PUSH4 0x6B280747 EQ PUSH2 0xE60 JUMPI DUP1 PUSH4 0x715018A6 EQ PUSH2 0xE06 JUMPI DUP1 PUSH4 0x8456CB59 EQ PUSH2 0xDAB JUMPI DUP1 PUSH4 0x8DA5CB5B EQ PUSH2 0xD84 JUMPI DUP1 PUSH4 0x958B3BD3 EQ PUSH2 0xCFE JUMPI DUP1 PUSH4 0xCA4FAB06 EQ PUSH2 0xCB5 JUMPI DUP1 PUSH4 0xCE371CBD EQ PUSH2 0xB6D JUMPI DUP1 PUSH4 0xD7FB1F63 EQ PUSH2 0xB24 JUMPI DUP1 PUSH4 0xE5ED1D59 EQ PUSH2 0x9B7 JUMPI DUP1 PUSH4 0xEFAA55A0 EQ PUSH2 0x7BE JUMPI DUP1 PUSH4 0xF043145B EQ PUSH2 0x36F JUMPI DUP1 PUSH4 0xF2FDE38B EQ PUSH2 0x2E3 JUMPI PUSH4 0xFFDE0C74 EQ PUSH2 0x135 JUMPI PUSH1 0x0 DUP1 REVERT JUMPDEST CALLVALUE PUSH2 0x2DF JUMPI PUSH1 0x20 CALLDATASIZE PUSH1 0x3 NOT ADD SLT PUSH2 0x2DF JUMPI DUP1 CALLDATALOAD DUP3 MSTORE PUSH1 0x5 PUSH1 0x20 MSTORE PUSH1 0x40 DUP3 KECCAK256 SWAP1 PUSH1 0x8 DUP3 ADD SLOAD PUSH1 0xFF DUP2 PUSH1 0x8 SHR AND SWAP1 DUP2 DUP1 SWAP3 PUSH2 0x2D1 JUMPI JUMPDEST DUP1 PUSH2 0x2C4 JUMPI JUMPDEST ISZERO PUSH2 0x2BD JUMPI PUSH2 0x18B PUSH1 0xFF PUSH1 0x5 DUP7 ADD SLOAD PUSH1 0x10 SHR AND PUSH1 0x2 DUP7 ADD PUSH2 0x1A3D JUMP JUMPDEST SWAP1 SLOAD PUSH1 0x3 SWAP2 SWAP1 SWAP2 SHL SHR PUSH1 0x1 PUSH1 0x1 PUSH1 0xA0 SHL SUB AND SWAP2 JUMPDEST DUP5 SLOAD SWAP5 PUSH1 0x1 DUP1 PUSH1 0xA0 SHL SUB PUSH1 0x1 DUP3 ADD SLOAD AND SWAP7 PUSH1 0x2 DUP3 ADD SWAP5 PUSH1 0x3 DUP4 ADD SLOAD SWAP7 DUP4 ADD SLOAD PUSH1 0x5 DUP5 ADD SLOAD SWAP1 PUSH1 0x6 DUP6 ADD SLOAD SWAP4 PUSH1 0xA PUSH1 0x7 DUP8 ADD SLOAD SWAP7 ADD SLOAD SWAP9 PUSH1 0x40 MLOAD SWAP1 DUP2 SWAP3 DUP4 SWAP3 PUSH1 0x20 DUP4 SLOAD SWAP2 DUP3 DUP2 MSTORE ADD SWAP3 DUP3 MSTORE PUSH1 0x20 DUP3 KECCAK256 SWAP2 JUMPDEST DUP2 DUP2 LT PUSH2 0x29B JUMPI POP POP POP SUB PUSH2 0x204 SWAP1 DUP3 PUSH2 0x1B8E JUMP JUMPDEST PUSH1 0x40 MLOAD SWAP12 DUP13 SWAP12 DUP13 MSTORE PUSH1 0x20 DUP13 ADD MSTORE PUSH2 0x1E0 DUP1 PUSH1 0x40 DUP14 ADD MSTORE DUP12 ADD PUSH2 0x225 SWAP2 PUSH2 0x1978 JUMP JUMPDEST SWAP9 PUSH1 0x60 DUP12 ADD MSTORE PUSH1 0x80 DUP11 ADD MSTORE PUSH1 0xFF DUP2 AND PUSH1 0xA0 DUP11 ADD MSTORE PUSH1 0x8 SHR PUSH1 0xFF AND PUSH1 0xC0 DUP10 ADD MSTORE PUSH1 0x1 PUSH1 0xA0 SHL PUSH1 0x1 SWAP1 SUB AND PUSH1 0xE0 DUP9 ADD MSTORE PUSH2 0x100 DUP8 ADD MSTORE PUSH2 0x120 DUP7 ADD MSTORE PUSH1 0xFF DUP3 AND ISZERO ISZERO PUSH2 0x140 DUP7 ADD MSTORE ISZERO ISZERO PUSH2 0x160 DUP6 ADD MSTORE PUSH1 0x10 SHR PUSH1 0xFF AND ISZERO ISZERO PUSH2 0x180 DUP5 ADD MSTORE PUSH1 0xFF DUP2 AND PUSH2 0x1A0 DUP5 ADD MSTORE PUSH1 0x8 SHR PUSH1 0xFF AND PUSH2 0x1C0 DUP4 ADD MSTORE SUB SWAP1 RETURN JUMPDEST DUP3 SLOAD PUSH1 0x1 PUSH1 0x1 PUSH1 0xA0 SHL SUB AND DUP5 MSTORE DUP6 SWAP5 POP PUSH1 0x20 SWAP1 SWAP4 ADD SWAP3 PUSH1 0x1 SWAP3 DUP4 ADD SWAP3 ADD PUSH2 0x1EF JUMP JUMPDEST DUP5 SWAP2 PUSH2 0x19F JUMP JUMPDEST POP PUSH1 0x2 DUP5 ADD SLOAD ISZERO ISZERO PUSH2 0x16F JUMP JUMPDEST POP PUSH1 0xFF DUP2 PUSH1 0x10 SHR AND ISZERO PUSH2 0x169 JUMP JUMPDEST POP DUP1 REVERT JUMPDEST POP CALLVALUE PUSH2 0x2DF JUMPI PUSH1 0x20 CALLDATASIZE PUSH1 0x3 NOT ADD SLT PUSH2 0x2DF JUMPI PUSH1 0x1 PUSH1 0x1 PUSH1 0xA0 SHL SUB DUP2 CALLDATALOAD DUP2 DUP2 AND SWAP3 SWAP1 DUP4 SWAP1 SUB PUSH2 0x36B JUMPI PUSH2 0x313 PUSH2 0x19B5 JUMP JUMPDEST DUP3 ISZERO PUSH2 0x353 JUMPI POP DUP3 SLOAD PUSH1 0x1 PUSH1 0x1 PUSH1 0xA0 SHL SUB NOT DUP2 AND DUP4 OR DUP5 SSTORE AND PUSH32 0x8BE0079C531659141344CD1FD0A4F28419497F9722A3DAAFE3B4186F6B6457E0 DUP4 DUP1 LOG3 DUP1 RETURN JUMPDEST PUSH1 0x40 MLOAD PUSH4 0x1E4FBDF7 PUSH1 0xE0 SHL DUP2 MSTORE SWAP1 DUP2 ADD DUP5 SWAP1 MSTORE PUSH1 0x24 SWAP1 REVERT JUMPDEST DUP4 DUP1 REVERT JUMPDEST POP CALLVALUE PUSH2 0x2DF JUMPI PUSH2 0x37E CALLDATASIZE PUSH2 0x18FD JUMP JUMPDEST PUSH2 0x389 SWAP4 SWAP2 SWAP4 PUSH2 0x1AC4 JUMP JUMPDEST PUSH2 0x391 PUSH2 0x1AA6 JUMP JUMPDEST DUP3 DUP6 MSTORE PUSH1 0x20 SWAP1 PUSH1 0x5 DUP3 MSTORE PUSH1 0x40 DUP7 KECCAK256 SWAP1 PUSH1 0x8 DUP3 ADD SLOAD SWAP2 PUSH2 0x3C1 PUSH1 0xFF SWAP4 DUP5 DUP1 DUP3 PUSH1 0x8 SHR AND SWAP2 DUP3 PUSH2 0x7B0 JUMPI JUMPDEST POP POP PUSH2 0x1AF4 JUMP JUMPDEST DUP6 DUP9 MSTORE PUSH1 0x6 DUP5 MSTORE PUSH1 0x40 DUP9 KECCAK256 CALLER DUP10 MSTORE DUP5 MSTORE PUSH2 0x3E1 DUP4 PUSH1 0x40 DUP11 KECCAK256 SLOAD AND ISZERO PUSH2 0x1B32 JUMP JUMPDEST PUSH2 0x3F7 DUP4 PUSH1 0x5 DUP4 ADD SLOAD PUSH1 0x10 SHR AND PUSH1 0x2 DUP4 ADD PUSH2 0x1A3D JUMP JUMPDEST PUSH1 0x1 DUP1 PUSH1 0xA0 SWAP5 SWAP4 SWAP5 SHL SUB DUP1 SWAP4 SLOAD CALLER SWAP3 PUSH1 0x3 SHL SHR AND SUB PUSH2 0x77C JUMPI PUSH1 0x6 DUP2 ADD SLOAD TIMESTAMP GT PUSH2 0x749 JUMPI PUSH1 0xA ADD SLOAD DUP8 DUP5 AND SWAP3 SWAP1 DUP5 AND DUP1 DUP5 LT SWAP1 DUP2 PUSH2 0x73D JUMPI JUMPDEST POP ISZERO PUSH2 0x703 JUMPI DUP7 DUP10 MSTORE PUSH1 0xA DUP6 MSTORE PUSH1 0x40 DUP10 KECCAK256 DUP4 DUP11 MSTORE DUP6 MSTORE PUSH1 0x40 DUP10 KECCAK256 SWAP4 DUP1 DUP3 AND SWAP5 DUP6 DUP12 MSTORE DUP7 MSTORE PUSH1 0x40 DUP11 KECCAK256 SLOAD AND PUSH2 0x6C7 JUMPI PUSH2 0x493 SWAP1 DUP8 DUP11 MSTORE PUSH1 0xA DUP7 MSTORE PUSH1 0x40 DUP11 KECCAK256 DUP5 DUP12 MSTORE DUP7 MSTORE PUSH1 0x40 DUP11 KECCAK256 DUP6 DUP12 MSTORE DUP7 MSTORE PUSH1 0x40 DUP11 KECCAK256 SWAP9 PUSH1 0x1 SWAP10 DUP11 PUSH1 0xFF NOT DUP3 SLOAD AND OR SWAP1 SSTORE DUP9 PUSH2 0x1DDE JUMP JUMPDEST SWAP3 DUP7 DUP10 MSTORE PUSH1 0x9 DUP6 MSTORE PUSH1 0x40 DUP10 KECCAK256 PUSH1 0x40 MLOAD SWAP1 PUSH2 0x4AC DUP3 PUSH2 0x1B72 JUMP JUMPDEST CALLER DUP3 MSTORE DUP7 DUP3 ADD DUP6 DUP2 MSTORE PUSH1 0x40 DUP4 ADD DUP5 DUP2 MSTORE PUSH1 0x60 DUP5 ADD SWAP1 DUP9 ISZERO ISZERO SWAP7 DUP8 DUP4 MSTORE PUSH1 0x80 DUP7 ADD SWAP5 TIMESTAMP DUP7 MSTORE DUP1 SLOAD SWAP1 PUSH1 0x1 PUSH1 0x40 SHL DUP3 LT ISZERO PUSH2 0x6B2 JUMPI DUP16 DUP3 ADD DUP2 SSTORE PUSH2 0x4EE SWAP2 SWAP1 PUSH2 0x1930 JUMP JUMPDEST SWAP7 SWAP1 SWAP7 PUSH2 0x69F JUMPI MLOAD DUP7 SLOAD SWAP5 MLOAD SWAP3 MLOAD SWAP4 MLOAD PUSH1 0x1 PUSH1 0x1 PUSH1 0xB8 SHL SUB NOT SWAP1 SWAP6 AND SWAP2 AND OR PUSH1 0xA0 SWAP2 SWAP1 SWAP2 SHL PUSH1 0xFF PUSH1 0xA0 SHL AND OR PUSH1 0xA8 SWAP2 SWAP1 SWAP2 SHL PUSH1 0xFF PUSH1 0xA8 SHL AND OR SWAP1 ISZERO ISZERO PUSH1 0xB0 SHL PUSH1 0xFF PUSH1 0xB0 SHL AND OR DUP3 SSTORE MLOAD SWAP1 DUP10 ADD SSTORE PUSH1 0x40 DUP1 MLOAD SWAP4 DUP5 MSTORE DUP6 DUP5 ADD SWAP2 SWAP1 SWAP2 MSTORE DUP3 ADD MSTORE CALLER SWAP1 DUP6 SWAP1 PUSH32 0x3054C4059FDAFD84BD2ADE27C80DE3FC92A1E1CD8503FBC3D8425EB00460F8FC SWAP1 PUSH1 0x60 SWAP1 LOG3 ISZERO PUSH2 0x694 JUMPI DUP3 DUP6 MSTORE PUSH1 0x6 DUP2 MSTORE PUSH1 0x40 DUP6 KECCAK256 CALLER DUP7 MSTORE DUP2 MSTORE PUSH1 0x40 DUP6 KECCAK256 DUP5 PUSH1 0xFF NOT DUP3 SLOAD AND OR SWAP1 SSTORE CALLER DUP4 PUSH32 0x638A014C19F58A705ADFDF3C8350F6EECBCAB57EDC63F1112FEF5828840730EB DUP8 DUP1 LOG3 DUP3 DUP6 MSTORE PUSH1 0x5 DUP2 MSTORE PUSH1 0x40 DUP6 KECCAK256 SWAP2 PUSH2 0x5D4 DUP5 PUSH2 0x2122 JUMP JUMPDEST SWAP3 DUP6 DUP5 MLOAD GT ISZERO PUSH1 0x0 EQ PUSH2 0x687 JUMPI PUSH1 0x8 DUP2 ADD DUP1 SLOAD PUSH3 0xFF0000 NOT AND PUSH3 0x10000 OR SWAP1 SSTORE DUP2 ADD SLOAD SWAP1 DUP2 ISZERO DUP3 DUP1 DIV DUP8 EQ OR ISZERO PUSH2 0x674 JUMPI POP SWAP2 PUSH2 0x65F SWAP2 PUSH2 0x63A DUP5 PUSH1 0x64 PUSH32 0xBB46215AF351898408A114360F0C9B357EF9E966C86F58086E64A66B0E6BA4DE SWAP7 DIV SWAP1 PUSH2 0x1BD0 JUMP JUMPDEST DUP3 MLOAD DUP1 ISZERO PUSH2 0x66C JUMPI PUSH2 0x64B SWAP2 PUSH2 0x1BB0 JUMP JUMPDEST PUSH1 0x40 MLOAD SWAP4 DUP5 SWAP4 PUSH1 0x40 DUP6 MSTORE PUSH1 0x40 DUP6 ADD SWAP1 PUSH2 0x1978 JUMP JUMPDEST SWAP2 DUP4 ADD MSTORE SUB SWAP1 LOG2 JUMPDEST DUP1 SSTORE DUP1 RETURN JUMPDEST POP POP DUP7 PUSH2 0x64B JUMP JUMPDEST PUSH4 0x4E487B71 PUSH1 0xE0 SHL DUP8 MSTORE PUSH1 0x11 SWAP1 MSTORE PUSH1 0x24 DUP7 REVERT JUMPDEST POP POP POP POP PUSH2 0x667 SWAP1 PUSH2 0x1F16 JUMP JUMPDEST POP POP PUSH2 0x667 SWAP1 PUSH2 0x1F16 JUMP JUMPDEST POP PUSH4 0x4E487B71 PUSH1 0xE0 SHL DUP16 MSTORE DUP15 DUP13 MSTORE PUSH1 0x24 DUP16 REVERT JUMPDEST POP POP PUSH4 0x4E487B71 PUSH1 0xE0 SHL DUP16 MSTORE PUSH1 0x41 DUP13 MSTORE PUSH1 0x24 DUP16 REVERT JUMPDEST PUSH1 0x40 MLOAD PUSH3 0x461BCD PUSH1 0xE5 SHL DUP2 MSTORE DUP1 DUP8 ADD DUP7 SWAP1 MSTORE PUSH1 0x15 PUSH1 0x24 DUP3 ADD MSTORE PUSH21 0x151A5B1948185B1C9958591E481C995D99585B1959 PUSH1 0x5A SHL PUSH1 0x44 DUP3 ADD MSTORE PUSH1 0x64 SWAP1 REVERT JUMPDEST PUSH1 0x40 MLOAD PUSH3 0x461BCD PUSH1 0xE5 SHL DUP2 MSTORE DUP1 DUP8 ADD DUP7 SWAP1 MSTORE PUSH1 0x13 PUSH1 0x24 DUP3 ADD MSTORE PUSH19 0x496E76616C696420636F6F7264696E61746573 PUSH1 0x68 SHL PUSH1 0x44 DUP3 ADD MSTORE PUSH1 0x64 SWAP1 REVERT JUMPDEST SWAP1 POP DUP5 DUP3 AND LT CODESIZE PUSH2 0x430 JUMP JUMPDEST PUSH1 0x40 MLOAD PUSH3 0x461BCD PUSH1 0xE5 SHL DUP2 MSTORE DUP1 DUP8 ADD DUP7 SWAP1 MSTORE PUSH1 0xC PUSH1 0x24 DUP3 ADD MSTORE PUSH12 0x151D5C9B88195E1C1A5C9959 PUSH1 0xA2 SHL PUSH1 0x44 DUP3 ADD MSTORE PUSH1 0x64 SWAP1 REVERT JUMPDEST PUSH1 0x40 MLOAD PUSH3 0x461BCD PUSH1 0xE5 SHL DUP2 MSTORE DUP1 DUP8 ADD DUP7 SWAP1 MSTORE PUSH1 0xD PUSH1 0x24 DUP3 ADD MSTORE PUSH13 0x2737BA103CB7BAB9103A3AB937 PUSH1 0x99 SHL PUSH1 0x44 DUP3 ADD MSTORE PUSH1 0x64 SWAP1 REVERT JUMPDEST PUSH1 0x10 SHR AND ISZERO SWAP1 POP DUP5 CODESIZE PUSH2 0x3BA JUMP JUMPDEST POP PUSH1 0x20 SWAP1 DUP2 PUSH1 0x3 NOT CALLDATASIZE ADD SLT PUSH2 0x9B3 JUMPI DUP1 CALLDATALOAD SWAP2 PUSH2 0x7D8 PUSH2 0x1AC4 JUMP JUMPDEST PUSH2 0x7E0 PUSH2 0x1AA6 JUMP JUMPDEST DUP3 DUP5 MSTORE PUSH1 0x5 DUP2 MSTORE PUSH1 0x40 DUP5 KECCAK256 SWAP1 PUSH1 0x8 DUP3 ADD SLOAD PUSH1 0xFF DUP2 PUSH1 0x8 SHR AND PUSH2 0x978 JUMPI PUSH1 0x10 SHR PUSH1 0xFF AND PUSH2 0x945 JUMPI PUSH1 0x2 DUP3 ADD DUP1 SLOAD PUSH1 0xFF PUSH1 0x5 DUP6 ADD SLOAD AND GT ISZERO PUSH2 0x915 JUMPI DUP5 DUP7 MSTORE PUSH1 0x7 DUP3 MSTORE PUSH1 0x40 DUP7 KECCAK256 CALLER DUP8 MSTORE DUP3 MSTORE PUSH1 0xFF PUSH1 0x40 DUP8 KECCAK256 SLOAD AND PUSH2 0x8E0 JUMPI PUSH1 0x3 DUP4 ADD SLOAD CALLVALUE SUB PUSH2 0x8A6 JUMPI PUSH2 0x84C SWAP1 CALLER SWAP1 PUSH2 0x1A55 JUMP JUMPDEST DUP4 DUP6 MSTORE PUSH1 0x7 DUP2 MSTORE PUSH1 0x40 DUP6 KECCAK256 SWAP1 CALLER DUP7 MSTORE MSTORE PUSH1 0x40 DUP5 KECCAK256 PUSH1 0x1 PUSH1 0xFF NOT DUP3 SLOAD AND OR SWAP1 SSTORE ADD PUSH2 0x877 CALLVALUE DUP3 SLOAD PUSH2 0x1AE7 JUMP JUMPDEST SWAP1 SSTORE CALLER SWAP1 PUSH32 0x87969BC7FAF902221A147B95CEBA76E011C5EFB0339A0A8EE7A2BB82D9CFBBD6 DUP4 DUP1 LOG3 PUSH1 0x1 DUP1 SSTORE DUP1 RETURN JUMPDEST PUSH1 0x40 MLOAD PUSH3 0x461BCD PUSH1 0xE5 SHL DUP2 MSTORE DUP1 DUP6 ADD DUP4 SWAP1 MSTORE PUSH1 0x13 PUSH1 0x24 DUP3 ADD MSTORE PUSH19 0x496E636F727265637420656E74727920666565 PUSH1 0x68 SHL PUSH1 0x44 DUP3 ADD MSTORE PUSH1 0x64 SWAP1 REVERT JUMPDEST PUSH1 0x40 MLOAD PUSH3 0x461BCD PUSH1 0xE5 SHL DUP2 MSTORE DUP1 DUP6 ADD DUP4 SWAP1 MSTORE PUSH1 0xE PUSH1 0x24 DUP3 ADD MSTORE PUSH14 0x105B1C9958591E481A9BDA5B9959 PUSH1 0x92 SHL PUSH1 0x44 DUP3 ADD MSTORE PUSH1 0x64 SWAP1 REVERT JUMPDEST PUSH1 0x40 MLOAD PUSH3 0x461BCD PUSH1 0xE5 SHL DUP2 MSTORE DUP1 DUP6 ADD DUP4 SWAP1 MSTORE PUSH1 0x9 PUSH1 0x24 DUP3 ADD MSTORE PUSH9 0x11D85B5948199D5B1B PUSH1 0xBA SHL PUSH1 0x44 DUP3 ADD MSTORE PUSH1 0x64 SWAP1 REVERT JUMPDEST DUP3 PUSH1 0x64 SWAP2 PUSH1 0x40 MLOAD SWAP2 PUSH3 0x461BCD PUSH1 0xE5 SHL DUP4 MSTORE DUP3 ADD MSTORE PUSH1 0xD PUSH1 0x24 DUP3 ADD MSTORE PUSH13 0x11D85B5948199A5B9A5CDA1959 PUSH1 0x9A SHL PUSH1 0x44 DUP3 ADD MSTORE REVERT JUMPDEST PUSH1 0x40 MLOAD PUSH3 0x461BCD PUSH1 0xE5 SHL DUP2 MSTORE DUP1 DUP6 ADD DUP4 SWAP1 MSTORE PUSH1 0x14 PUSH1 0x24 DUP3 ADD MSTORE PUSH20 0x11D85B5948185B1C9958591E481CDD185C9D1959 PUSH1 0x62 SHL PUSH1 0x44 DUP3 ADD MSTORE PUSH1 0x64 SWAP1 REVERT JUMPDEST DUP3 DUP1 REVERT JUMPDEST POP CALLVALUE PUSH2 0x2DF JUMPI PUSH1 0x20 DUP1 PUSH1 0x3 NOT CALLDATASIZE ADD SLT PUSH2 0x9B3 JUMPI DUP2 CALLDATALOAD SWAP2 PUSH2 0x9D5 PUSH2 0x1AC4 JUMP JUMPDEST PUSH2 0x9DD PUSH2 0x1AA6 JUMP JUMPDEST DUP3 DUP5 MSTORE PUSH1 0x5 DUP3 MSTORE PUSH1 0x40 DUP5 KECCAK256 PUSH1 0x1 DUP2 ADD SLOAD SWAP1 SWAP2 SWAP1 PUSH1 0x1 PUSH1 0x1 PUSH1 0xA0 SHL SUB AND CALLER SUB PUSH2 0xAE7 JUMPI PUSH1 0x8 DUP3 ADD SWAP1 DUP2 SLOAD SWAP1 PUSH1 0xFF DUP3 PUSH1 0x8 SHR AND PUSH2 0xAB1 JUMPI PUSH1 0x2 DUP1 DUP6 ADD SLOAD LT PUSH2 0xA78 JUMPI POP SWAP1 PUSH2 0x100 PUSH32 0xA2DFAA3573B86004EC9D4D4ABE5068D942579C59DA4DA8CD0D9E45E71A393BC1 SWAP5 SWAP4 SWAP3 PUSH2 0xFF00 NOT AND OR SWAP1 SSTORE PUSH1 0x6 PUSH2 0xA5E PUSH1 0x7 DUP4 ADD SLOAD TIMESTAMP PUSH2 0x1AE7 JUMP JUMPDEST SWAP2 ADD SSTORE PUSH2 0xA6A DUP4 PUSH2 0x1C87 JUMP JUMPDEST PUSH1 0x40 MLOAD TIMESTAMP DUP2 MSTORE LOG2 PUSH1 0x1 DUP1 SSTORE DUP1 RETURN JUMPDEST PUSH1 0x40 MLOAD PUSH3 0x461BCD PUSH1 0xE5 SHL DUP2 MSTORE SWAP1 DUP2 ADD DUP6 SWAP1 MSTORE PUSH1 0x12 PUSH1 0x24 DUP3 ADD MSTORE PUSH18 0x4E6F7420656E6F75676820706C6179657273 PUSH1 0x70 SHL PUSH1 0x44 DUP3 ADD MSTORE PUSH1 0x64 SWAP1 REVERT JUMPDEST PUSH1 0x40 MLOAD PUSH3 0x461BCD PUSH1 0xE5 SHL DUP2 MSTORE SWAP1 DUP2 ADD DUP6 SWAP1 MSTORE PUSH1 0xF PUSH1 0x24 DUP3 ADD MSTORE PUSH15 0x105B1C9958591E481CDD185C9D1959 PUSH1 0x8A SHL PUSH1 0x44 DUP3 ADD MSTORE PUSH1 0x64 SWAP1 REVERT JUMPDEST PUSH1 0x40 MLOAD PUSH3 0x461BCD PUSH1 0xE5 SHL DUP2 MSTORE SWAP1 DUP2 ADD DUP4 SWAP1 MSTORE PUSH1 0x16 PUSH1 0x24 DUP3 ADD MSTORE PUSH22 0x13DB9B1E4818DC99585D1BDC8818D85B881CDD185C9D PUSH1 0x52 SHL PUSH1 0x44 DUP3 ADD MSTORE PUSH1 0x64 SWAP1 REVERT JUMPDEST POP CALLVALUE PUSH2 0x2DF JUMPI PUSH1 0x40 CALLDATASIZE PUSH1 0x3 NOT ADD SLT PUSH2 0x2DF JUMPI PUSH1 0x40 PUSH1 0x20 SWAP3 PUSH1 0xFF SWAP3 PUSH2 0xB46 PUSH2 0x1962 JUMP JUMPDEST SWAP1 CALLDATALOAD DUP3 MSTORE PUSH1 0x8 DUP6 MSTORE DUP3 DUP3 KECCAK256 PUSH1 0x1 PUSH1 0x1 PUSH1 0xA0 SHL SUB SWAP1 SWAP2 AND DUP3 MSTORE DUP5 MSTORE KECCAK256 SLOAD PUSH1 0x40 MLOAD SWAP2 AND ISZERO ISZERO DUP2 MSTORE RETURN JUMPDEST POP SWAP1 CALLVALUE PUSH2 0xCB2 JUMPI PUSH1 0x20 CALLDATASIZE PUSH1 0x3 NOT ADD SLT PUSH2 0xCB2 JUMPI DUP2 CALLDATALOAD PUSH2 0xB8A PUSH2 0x1AC4 JUMP JUMPDEST PUSH2 0xB92 PUSH2 0x1AA6 JUMP JUMPDEST DUP1 DUP3 MSTORE PUSH1 0x5 PUSH1 0x20 MSTORE PUSH1 0x40 DUP3 KECCAK256 PUSH2 0xBBA PUSH1 0x8 DUP3 ADD SLOAD PUSH1 0xFF DUP2 PUSH1 0x8 SHR AND SWAP1 DUP2 PUSH2 0xCA3 JUMPI JUMPDEST POP PUSH2 0x1AF4 JUMP JUMPDEST DUP2 DUP4 MSTORE PUSH1 0x6 PUSH1 0x20 MSTORE PUSH1 0x40 DUP4 KECCAK256 CALLER DUP5 MSTORE PUSH1 0x20 MSTORE PUSH2 0xBDD PUSH1 0xFF PUSH1 0x40 DUP6 KECCAK256 SLOAD AND ISZERO PUSH2 0x1B32 JUMP JUMPDEST PUSH1 0x2 DUP2 ADD PUSH1 0xFF PUSH1 0x5 DUP4 ADD SLOAD PUSH1 0x10 SHR AND SWAP5 PUSH2 0xBF7 DUP7 DUP4 PUSH2 0x1A3D JUMP JUMPDEST SWAP1 SLOAD PUSH1 0x1 PUSH1 0x1 PUSH1 0xA0 SHL SUB SWAP5 PUSH1 0x3 SWAP3 SWAP1 SWAP3 SHL SHR DUP5 AND CALLER EQ SWAP1 DUP2 ISZERO PUSH2 0xC95 JUMPI JUMPDEST POP ISZERO PUSH2 0xC63 JUMPI POP PUSH2 0xC5C SWAP4 SWAP5 PUSH2 0xC2A SWAP2 PUSH2 0x1A3D JUMP JUMPDEST SWAP1 SLOAD SWAP1 PUSH1 0x3 SHL SHR AND DUP2 PUSH32 0x78D563416C0D6C2454E9C81222EE1E58F6C3FF4DFCFA798D85D391E57023ECC9 DUP6 DUP1 LOG3 PUSH2 0x1F16 JUMP JUMPDEST PUSH1 0x1 DUP1 SSTORE DUP1 RETURN JUMPDEST PUSH1 0x64 SWAP1 PUSH1 0x20 PUSH1 0x40 MLOAD SWAP2 PUSH3 0x461BCD PUSH1 0xE5 SHL DUP4 MSTORE DUP3 ADD MSTORE PUSH1 0xB PUSH1 0x24 DUP3 ADD MSTORE PUSH11 0x43616E6E6F7420736B697 PUSH1 0xAC SHL PUSH1 0x44 DUP3 ADD MSTORE REVERT JUMPDEST PUSH1 0x6 SWAP2 POP ADD SLOAD TIMESTAMP GT CODESIZE PUSH2 0xC15 JUMP JUMPDEST PUSH1 0xFF SWAP2 POP PUSH1 0x10 SHR AND ISZERO CODESIZE PUSH2 0xBB4 JUMP JUMPDEST DUP1 REVERT JUMPDEST POP CALLVALUE PUSH2 0x2DF JUMPI PUSH1 0x40 CALLDATASIZE PUSH1 0x3 NOT ADD SLT PUSH2 0x2DF JUMPI PUSH1 0x40 PUSH1 0x20 SWAP3 PUSH1 0xFF SWAP3 PUSH2 0xCD7 PUSH2 0x1962 JUMP JUMPDEST SWAP1 CALLDATALOAD DUP3 MSTORE PUSH1 0x6 DUP6 MSTORE DUP3 DUP3 KECCAK256 PUSH1 0x1 PUSH1 0x1 PUSH1 0xA0 SHL SUB SWAP1 SWAP2 AND DUP3 MSTORE DUP5 MSTORE KECCAK256 SLOAD PUSH1 0x40 MLOAD SWAP2 AND ISZERO ISZERO DUP2 MSTORE RETURN JUMPDEST POP CALLVALUE PUSH2 0x2DF JUMPI PUSH1 0x40 CALLDATASIZE PUSH1 0x3 NOT ADD SLT PUSH2 0x2DF JUMPI SWAP1 PUSH1 0x60 SWAP2 CALLDATALOAD PUSH2 0xD1D PUSH2 0x1962 JUMP JUMPDEST SWAP2 DUP2 DUP2 MSTORE PUSH1 0xFF PUSH1 0x40 PUSH1 0x20 SWAP3 PUSH1 0x7 DUP5 MSTORE DUP2 DUP2 KECCAK256 SWAP6 PUSH1 0x1 DUP1 PUSH1 0xA0 SHL SUB AND SWAP6 DUP7 DUP3 MSTORE DUP5 MSTORE DUP3 DUP3 DUP3 KECCAK256 SLOAD AND SWAP6 DUP6 DUP3 MSTORE PUSH1 0x6 DUP6 MSTORE DUP3 DUP3 KECCAK256 DUP2 DUP4 MSTORE DUP6 MSTORE DUP4 DUP4 DUP4 KECCAK256 SLOAD AND SWAP6 DUP3 MSTORE PUSH1 0x8 DUP6 MSTORE DUP3 DUP3 KECCAK256 SWAP1 DUP3 MSTORE DUP5 MSTORE KECCAK256 SLOAD AND SWAP2 PUSH1 0x40 MLOAD SWAP4 ISZERO ISZERO DUP5 MSTORE ISZERO ISZERO SWAP1 DUP4 ADD MSTORE ISZERO ISZERO PUSH1 0x40 DUP3 ADD MSTORE RETURN JUMPDEST DUP3 CALLVALUE PUSH2 0xCB2 JUMPI DUP1 PUSH1 0x3 NOT CALLDATASIZE ADD SLT PUSH2 0xCB2 JUMPI SLOAD PUSH1 0x40 MLOAD PUSH1 0x1 PUSH1 0x1 PUSH1 0xA0 SHL SUB SWAP1 SWAP2 AND DUP2 MSTORE PUSH1 0x20 SWAP1 RETURN JUMPDEST DUP3 CALLVALUE PUSH2 0xCB2 JUMPI DUP1 PUSH1 0x3 NOT CALLDATASIZE ADD SLT PUSH2 0xCB2 JUMPI PUSH2 0xDC4 PUSH2 0x19B5 JUMP JUMPDEST PUSH2 0xDCC PUSH2 0x1AA6 JUMP JUMPDEST PUSH1 0x1 PUSH1 0xFF NOT PUSH1 0x2 SLOAD AND OR PUSH1 0x2 SSTORE PUSH32 0x62E78CEA01BEE320CD4E420270B5EA74000D11B0C9F74754EBDBFC544B05A258 PUSH1 0x20 PUSH1 0x40 MLOAD CALLER DUP2 MSTORE LOG1 DUP1 RETURN JUMPDEST DUP3 CALLVALUE PUSH2 0xCB2 JUMPI DUP1 PUSH1 0x3 NOT CALLDATASIZE ADD SLT PUSH2 0xCB2 JUMPI PUSH2 0xE1F PUSH2 0x19B5 JUMP JUMPDEST DUP1 SLOAD PUSH1 0x1 PUSH1 0x1 PUSH1 0xA0 SHL SUB NOT DUP2 AND DUP3 SSTORE DUP2 SWAP1 PUSH1 0x1 PUSH1 0x1 PUSH1 0xA0 SHL SUB AND PUSH32 0x8BE0079C531659141344CD1FD0A4F28419497F9722A3DAAFE3B4186F6B6457E0 DUP3 DUP1 LOG3 DUP1 RETURN JUMPDEST POP SWAP1 CALLVALUE PUSH2 0xCB2 JUMPI PUSH1 0x20 SWAP2 DUP3 PUSH1 0x3 NOT CALLDATASIZE ADD SLT PUSH2 0x2DF JUMPI DUP3 SWAP1 CALLDATALOAD DUP3 MSTORE PUSH1 0x9 DUP2 MSTORE PUSH1 0x40 DUP3 KECCAK256 DUP1 SLOAD PUSH2 0xE8D DUP2 PUSH2 0x1C5B JUMP JUMPDEST SWAP1 PUSH2 0xE9B PUSH1 0x40 MLOAD SWAP3 DUP4 PUSH2 0x1B8E JUMP JUMPDEST DUP1 DUP3 MSTORE DUP4 DUP3 ADD DUP1 SWAP4 DUP7 MSTORE DUP5 DUP7 KECCAK256 DUP7 SWAP2 JUMPDEST DUP4 DUP4 LT PUSH2 0xF2A JUMPI POP POP POP POP PUSH1 0x40 MLOAD SWAP3 DUP1 DUP5 ADD SWAP2 DUP2 DUP6 MSTORE MLOAD DUP1 SWAP3 MSTORE PUSH1 0x40 DUP5 ADD SWAP3 SWAP5 JUMPDEST DUP3 DUP2 LT PUSH2 0xED9 JUMPI DUP5 DUP5 SUB DUP6 RETURN JUMPDEST DUP6 MLOAD DUP1 MLOAD PUSH1 0x1 PUSH1 0x1 PUSH1 0xA0 SHL SUB AND DUP6 MSTORE DUP1 DUP4 ADD MLOAD PUSH1 0xFF SWAP1 DUP2 AND DUP7 DUP6 ADD MSTORE PUSH1 0x40 DUP1 DUP4 ADD MLOAD SWAP1 SWAP2 AND SWAP1 DUP7 ADD MSTORE PUSH1 0x60 DUP1 DUP3 ADD MLOAD ISZERO ISZERO SWAP1 DUP7 ADD MSTORE PUSH1 0x80 SWAP1 DUP2 ADD MLOAD SWAP1 DUP6 ADD MSTORE SWAP5 DUP2 ADD SWAP5 PUSH1 0xA0 SWAP1 SWAP4 ADD SWAP3 PUSH1 0x1 ADD PUSH2 0xECC JUMP JUMPDEST PUSH1 0x2 DUP8 PUSH1 0x1 SWAP3 PUSH1 0x40 SWAP11 SWAP10 SWAP8 SWAP9 SWAP11 MLOAD PUSH2 0xF41 DUP2 PUSH2 0x1B72 JUMP JUMPDEST DUP6 SLOAD DUP6 DUP1 PUSH1 0xA0 SHL SUB DUP2 AND DUP3 MSTORE PUSH1 0xFF SWAP1 DUP2 DUP2 PUSH1 0xA0 SHR AND DUP6 DUP5 ADD MSTORE DUP2 DUP2 PUSH1 0xA8 SHR AND PUSH1 0x40 DUP5 ADD MSTORE PUSH1 0xB0 SHR AND ISZERO ISZERO PUSH1 0x60 DUP3 ADD MSTORE DUP5 DUP7 ADD SLOAD PUSH1 0x80 DUP3 ADD MSTORE DUP2 MSTORE ADD SWAP3 ADD SWAP3 ADD SWAP2 SWAP1 SWAP7 SWAP5 SWAP4 SWAP6 SWAP7 PUSH2 0xEAB JUMP JUMPDEST POP CALLVALUE PUSH2 0x2DF JUMPI PUSH1 0x40 CALLDATASIZE PUSH1 0x3 NOT ADD SLT PUSH2 0x2DF JUMPI PUSH1 0x40 PUSH1 0x20 SWAP3 PUSH1 0xFF SWAP3 PUSH2 0xFAE PUSH2 0x1962 JUMP JUMPDEST SWAP1 CALLDATALOAD DUP3 MSTORE PUSH1 0x7 DUP6 MSTORE DUP3 DUP3 KECCAK256 PUSH1 0x1 PUSH1 0x1 PUSH1 0xA0 SHL SUB SWAP1 SWAP2 AND DUP3 MSTORE DUP5 MSTORE KECCAK256 SLOAD PUSH1 0x40 MLOAD SWAP2 AND ISZERO ISZERO DUP2 MSTORE RETURN JUMPDEST POP CALLVALUE PUSH2 0x2DF JUMPI PUSH1 0x20 SWAP1 DUP2 PUSH1 0x3 NOT CALLDATASIZE ADD SLT PUSH2 0x9B3 JUMPI DUP1 CALLDATALOAD SWAP2 PUSH2 0xFF4 PUSH2 0x1AC4 JUMP JUMPDEST DUP3 DUP5 MSTORE PUSH1 0x5 DUP2 MSTORE PUSH1 0x40 DUP5 KECCAK256 PUSH1 0xFF PUSH1 0x8 DUP3 ADD SLOAD PUSH1 0x10 SHR AND ISZERO PUSH2 0x11DC JUMPI DUP4 DUP6 MSTORE PUSH1 0x6 DUP3 MSTORE PUSH1 0x40 DUP6 KECCAK256 CALLER DUP7 MSTORE DUP3 MSTORE PUSH1 0xFF PUSH1 0x40 DUP7 KECCAK256 SLOAD AND PUSH2 0x11A0 JUMPI DUP4 DUP6 MSTORE PUSH1 0x7 DUP3 MSTORE PUSH1 0x40 DUP6 KECCAK256 CALLER DUP7 MSTORE DUP3 MSTORE PUSH1 0xFF PUSH1 0x40 DUP7 KECCAK256 SLOAD AND ISZERO PUSH2 0x116D JUMPI DUP4 DUP6 MSTORE PUSH1 0x8 DUP3 MSTORE PUSH1 0x40 DUP6 KECCAK256 CALLER DUP7 MSTORE DUP3 MSTORE PUSH1 0xFF PUSH1 0x40 DUP7 KECCAK256 SLOAD AND PUSH2 0x1137 JUMPI PUSH2 0x106D DUP5 PUSH2 0x2122 JUMP JUMPDEST SWAP1 DUP2 MLOAD ISZERO PUSH2 0x1106 JUMPI DUP4 ADD SLOAD SWAP2 DUP3 DUP1 DIV PUSH1 0x1 EQ DUP4 ISZERO OR ISZERO PUSH2 0x10F3 JUMPI DUP6 DUP1 DUP7 DUP2 SWAP7 PUSH2 0x10E0 PUSH2 0x10D9 DUP9 DUP6 SWAP9 DUP7 SWAP9 PUSH2 0x10B3 PUSH2 0x10AB PUSH1 0x64 PUSH2 0xC5C SWAP15 DIV DUP1 SWAP6 PUSH2 0x1BD0 JUMP JUMPDEST DUP4 MLOAD SWAP1 PUSH2 0x1BB0 JUMP JUMPDEST SWAP7 DUP9 MSTORE PUSH1 0x8 DUP2 MSTORE PUSH1 0x40 DUP9 KECCAK256 SWAP1 CALLER DUP10 MSTORE MSTORE PUSH1 0x40 DUP8 KECCAK256 PUSH1 0x1 PUSH1 0xFF NOT DUP3 SLOAD AND OR SWAP1 SSTORE MLOAD SWAP1 PUSH2 0x1BB0 JUMP JUMPDEST DUP3 SLOAD PUSH2 0x1AE7 JUMP JUMPDEST SWAP1 SSTORE CALLER GAS CALL PUSH2 0x10ED PUSH2 0x1BDD JUMP JUMPDEST POP PUSH2 0x1C1D JUMP JUMPDEST PUSH4 0x4E487B71 PUSH1 0xE0 SHL DUP7 MSTORE PUSH1 0x11 DUP5 MSTORE PUSH1 0x24 DUP7 REVERT JUMPDEST PUSH1 0x40 MLOAD PUSH3 0x461BCD PUSH1 0xE5 SHL DUP2 MSTORE DUP1 DUP6 ADD DUP5 SWAP1 MSTORE PUSH1 0xA PUSH1 0x24 DUP3 ADD MSTORE PUSH10 0x4E6F2077696E6E657273 PUSH1 0xB0 SHL PUSH1 0x44 DUP3 ADD MSTORE PUSH1 0x64 SWAP1 REVERT JUMPDEST PUSH1 0x40 MLOAD PUSH3 0x461BCD PUSH1 0xE5 SHL DUP2 MSTORE DUP1 DUP5 ADD DUP4 SWAP1 MSTORE PUSH1 0xF PUSH1 0x24 DUP3 ADD MSTORE PUSH15 0x105B1C9958591E4818DB185A5B5959 PUSH1 0x8A SHL PUSH1 0x44 DUP3 ADD MSTORE PUSH1 0x64 SWAP1 REVERT JUMPDEST PUSH1 0x40 MLOAD PUSH3 0x461BCD PUSH1 0xE5 SHL DUP2 MSTORE DUP1 DUP5 ADD DUP4 SWAP1 MSTORE PUSH1 0xC PUSH1 0x24 DUP3 ADD MSTORE PUSH12 0x2737BA103090383630BCB2B9 PUSH1 0xA1 SHL PUSH1 0x44 DUP3 ADD MSTORE PUSH1 0x64 SWAP1 REVERT JUMPDEST PUSH1 0x40 MLOAD PUSH3 0x461BCD PUSH1 0xE5 SHL DUP2 MSTORE DUP1 DUP5 ADD DUP4 SWAP1 MSTORE PUSH1 0x15 PUSH1 0x24 DUP3 ADD MSTORE PUSH21 0x141B185E595C881DD85CC8195B1A5B5A5B985D1959 PUSH1 0x5A SHL PUSH1 0x44 DUP3 ADD MSTORE PUSH1 0x64 SWAP1 REVERT JUMPDEST PUSH1 0x40 MLOAD PUSH3 0x461BCD PUSH1 0xE5 SHL DUP2 MSTORE DUP1 DUP5 ADD DUP4 SWAP1 MSTORE PUSH1 0x11 PUSH1 0x24 DUP3 ADD MSTORE PUSH17 0x11D85B59481B9BDD08199A5B9A5CDA1959 PUSH1 0x7A SHL PUSH1 0x44 DUP3 ADD MSTORE PUSH1 0x64 SWAP1 REVERT JUMPDEST POP CALLVALUE PUSH2 0x2DF JUMPI DUP2 PUSH1 0x3 NOT CALLDATASIZE ADD SLT PUSH2 0x2DF JUMPI PUSH1 0x20 SWAP1 SLOAD PUSH1 0x40 MLOAD SWAP1 DUP2 MSTORE RETURN JUMPDEST DUP3 CALLVALUE PUSH2 0xCB2 JUMPI DUP1 PUSH1 0x3 NOT CALLDATASIZE ADD SLT PUSH2 0xCB2 JUMPI PUSH1 0x20 PUSH1 0xFF PUSH1 0x2 SLOAD AND PUSH1 0x40 MLOAD SWAP1 ISZERO ISZERO DUP2 MSTORE RETURN JUMPDEST DUP3 CALLVALUE PUSH2 0xCB2 JUMPI PUSH1 0xFF PUSH1 0x40 PUSH1 0x20 SWAP3 PUSH2 0x126A CALLDATASIZE PUSH2 0x18FD JUMP JUMPDEST SWAP2 DUP4 MSTORE PUSH1 0xA DUP7 MSTORE DUP5 DUP5 DUP5 KECCAK256 SWAP2 AND DUP4 MSTORE DUP6 MSTORE DUP4 DUP4 DUP4 KECCAK256 SWAP2 AND DUP3 MSTORE DUP5 MSTORE KECCAK256 SLOAD AND PUSH1 0x40 MLOAD SWAP1 ISZERO ISZERO DUP2 MSTORE RETURN JUMPDEST POP SWAP1 PUSH1 0x80 CALLDATASIZE PUSH1 0x3 NOT ADD SLT PUSH2 0xCB2 JUMPI DUP2 CALLDATALOAD PUSH1 0x24 SWAP1 DUP2 CALLDATALOAD SWAP2 PUSH1 0xFF DUP4 AND DUP1 SWAP4 SUB PUSH2 0x36B JUMPI PUSH1 0x44 CALLDATALOAD SWAP3 PUSH1 0x64 CALLDATALOAD SWAP2 DUP3 ISZERO ISZERO DUP1 SWAP4 SUB PUSH2 0x1558 JUMPI PUSH2 0x12CD PUSH2 0x1AC4 JUMP JUMPDEST PUSH2 0x12D5 PUSH2 0x1AA6 JUMP JUMPDEST PUSH1 0x2 DUP3 LT ISZERO DUP1 PUSH2 0x154D JUMPI JUMPDEST ISZERO PUSH2 0x1513 JUMPI PUSH1 0xA DUP6 LT ISZERO DUP1 PUSH2 0x1508 JUMPI JUMPDEST ISZERO PUSH2 0x14CD JUMPI DUP4 CALLVALUE SUB PUSH2 0x1495 JUMPI DUP4 ISZERO PUSH2 0x1452 JUMPI PUSH1 0x3 SLOAD SWAP5 PUSH2 0x130F DUP7 PUSH2 0x19E1 JUMP JUMPDEST PUSH1 0x3 SSTORE DUP6 DUP8 MSTORE PUSH1 0x5 PUSH1 0x20 MSTORE PUSH2 0x1381 PUSH1 0x40 DUP9 KECCAK256 DUP8 DUP2 SSTORE PUSH1 0x1 DUP2 ADD CALLER PUSH12 0xFFFFFFFFFFFFFFFFFFFFFFFF PUSH1 0xA0 SHL DUP3 SLOAD AND OR SWAP1 SSTORE DUP7 PUSH1 0x3 DUP3 ADD SSTORE PUSH1 0x5 DUP2 ADD DUP1 SLOAD SWAP4 PUSH1 0x7 DUP4 ADD SSTORE PUSH2 0x100 DUP7 PUSH1 0x8 DUP5 ADD SWAP6 PUSH1 0xFF NOT SWAP7 DUP8 DUP2 SLOAD AND PUSH1 0xFF DUP13 AND OR SWAP1 SSTORE PUSH2 0xFFFF NOT AND OR OR SWAP1 SSTORE DUP7 DUP11 DUP3 ADD SSTORE PUSH1 0x2 CALLER SWAP2 ADD PUSH2 0x1A55 JUMP JUMPDEST DUP6 DUP8 MSTORE PUSH1 0x7 PUSH1 0x20 MSTORE PUSH1 0x40 DUP8 KECCAK256 CALLER DUP9 MSTORE PUSH1 0x20 MSTORE PUSH1 0x1 PUSH1 0x40 DUP9 KECCAK256 SWAP2 DUP3 SLOAD AND OR SWAP1 SSTORE PUSH1 0xB SLOAD SWAP7 PUSH1 0x1 PUSH1 0x40 SHL DUP9 LT ISZERO PUSH2 0x1441 JUMPI POP POP PUSH2 0x13C4 DUP7 PUSH1 0x1 PUSH1 0x20 SWAP9 ADD PUSH1 0xB SSTORE PUSH2 0x1A06 JUMP JUMPDEST DUP2 SLOAD SWAP1 PUSH1 0x3 SHL SWAP1 DUP7 DUP3 SHL SWAP2 PUSH1 0x0 NOT SWAP1 SHL NOT AND OR SWAP1 SSTORE PUSH1 0x40 MLOAD SWAP3 DUP4 MSTORE DUP6 DUP4 ADD MSTORE PUSH1 0x40 DUP3 ADD MSTORE DUP2 PUSH32 0xECBF611C0167855F525028668676EC0497E5AABB4941B80E5C9C6919A17EA0C3 PUSH1 0x60 CALLER SWAP4 LOG3 PUSH1 0x40 MLOAD SWAP2 DUP2 PUSH32 0x87969BC7FAF902221A147B95CEBA76E011C5EFB0339A0A8EE7A2BB82D9CFBBD6 CALLER SWAP3 DUP1 LOG3 PUSH1 0x1 DUP1 SSTORE DUP2 MSTORE RETURN JUMPDEST PUSH4 0x4E487B71 PUSH1 0xE0 SHL DUP8 MSTORE PUSH1 0x41 SWAP1 MSTORE DUP6 REVERT JUMPDEST DUP7 PUSH1 0x1A PUSH1 0x64 SWAP3 PUSH1 0x20 PUSH1 0x40 MLOAD SWAP4 PUSH3 0x461BCD PUSH1 0xE5 SHL DUP6 MSTORE DUP5 ADD MSTORE DUP3 ADD MSTORE PUSH32 0x456E74727920666565206D75737420626520706F736974697665000000000000 PUSH1 0x44 DUP3 ADD MSTORE REVERT JUMPDEST DUP7 PUSH1 0x12 PUSH1 0x64 SWAP3 PUSH1 0x20 PUSH1 0x40 MLOAD SWAP4 PUSH3 0x461BCD PUSH1 0xE5 SHL DUP6 MSTORE DUP5 ADD MSTORE DUP3 ADD MSTORE PUSH18 0x8ADCE8E4F240CCCACA40DAD2E6DAC2E8C6D PUSH1 0x73 SHL PUSH1 0x44 DUP3 ADD MSTORE REVERT JUMPDEST DUP7 PUSH1 0x15 PUSH1 0x64 SWAP3 PUSH1 0x20 PUSH1 0x40 MLOAD SWAP4 PUSH3 0x461BCD PUSH1 0xE5 SHL DUP6 MSTORE DUP5 ADD MSTORE DUP3 ADD MSTORE PUSH21 0x24B73B30B634B2103A3AB93710323AB930BA34B7B7 PUSH1 0x59 SHL PUSH1 0x44 DUP3 ADD MSTORE REVERT JUMPDEST POP PUSH1 0x1E DUP6 GT ISZERO PUSH2 0x12F0 JUMP JUMPDEST DUP7 PUSH1 0x14 PUSH1 0x64 SWAP3 PUSH1 0x20 PUSH1 0x40 MLOAD SWAP4 PUSH3 0x461BCD PUSH1 0xE5 SHL DUP6 MSTORE DUP5 ADD MSTORE DUP3 ADD MSTORE PUSH20 0x125B9D985B1A59081C1B185E595C8818DBDD5B9D PUSH1 0x62 SHL PUSH1 0x44 DUP3 ADD MSTORE REVERT JUMPDEST POP PUSH1 0xA DUP3 GT ISZERO PUSH2 0x12E0 JUMP JUMPDEST DUP6 DUP1 REVERT JUMPDEST POP CALLVALUE PUSH2 0x2DF JUMPI DUP2 PUSH1 0x3 NOT CALLDATASIZE ADD SLT PUSH2 0x2DF JUMPI PUSH2 0x1575 PUSH2 0x19B5 JUMP JUMPDEST DUP1 SLOAD SWAP1 DUP2 ISZERO PUSH2 0x15A0 JUMPI DUP3 DUP1 DUP1 PUSH2 0x159D SWAP5 DUP2 DUP1 SWAP6 SSTORE PUSH1 0x1 DUP1 PUSH1 0xA0 SHL SUB DUP3 SLOAD AND GAS CALL PUSH2 0x10ED PUSH2 0x1BDD JUMP JUMPDEST DUP1 RETURN JUMPDEST PUSH1 0x64 SWAP1 PUSH1 0x20 PUSH1 0x40 MLOAD SWAP2 PUSH3 0x461BCD PUSH1 0xE5 SHL DUP4 MSTORE DUP3 ADD MSTORE PUSH1 0x13 PUSH1 0x24 DUP3 ADD MSTORE PUSH19 0x4E6F206665657320746F207769746864726177 PUSH1 0x68 SHL PUSH1 0x44 DUP3 ADD MSTORE REVERT JUMPDEST POP CALLVALUE PUSH2 0x2DF JUMPI DUP2 PUSH1 0x3 NOT CALLDATASIZE ADD SLT PUSH2 0x2DF JUMPI PUSH2 0x15F3 PUSH2 0x19B5 JUMP JUMPDEST PUSH1 0x2 SLOAD SWAP1 PUSH1 0xFF DUP3 AND ISZERO PUSH2 0x1635 JUMPI POP PUSH1 0xFF NOT AND PUSH1 0x2 SSTORE PUSH32 0x5DB9EE0A495BF2E6FF9C91A7834C1BA4FDD244A5E8AA4E537BD38AEAE4B073AA PUSH1 0x20 PUSH1 0x40 MLOAD CALLER DUP2 MSTORE LOG1 DUP1 RETURN JUMPDEST PUSH1 0x40 MLOAD PUSH4 0x8DFC202B PUSH1 0xE0 SHL DUP2 MSTORE REVERT JUMPDEST POP SWAP1 CALLVALUE PUSH2 0xCB2 JUMPI PUSH1 0x40 CALLDATASIZE PUSH1 0x3 NOT ADD SLT PUSH2 0xCB2 JUMPI PUSH1 0x24 CALLDATALOAD SWAP2 CALLDATALOAD DUP2 MSTORE PUSH1 0x9 PUSH1 0x20 MSTORE PUSH1 0x40 DUP2 KECCAK256 SWAP1 DUP2 SLOAD DUP4 LT ISZERO PUSH2 0xCB2 JUMPI PUSH1 0xA0 PUSH2 0x167D DUP5 DUP5 PUSH2 0x1930 JUMP JUMPDEST POP PUSH1 0x1 DUP2 SLOAD SWAP2 ADD SLOAD PUSH1 0xFF PUSH1 0x40 MLOAD SWAP3 PUSH1 0x1 DUP1 DUP7 SHL SUB DUP2 AND DUP5 MSTORE DUP2 DUP2 DUP7 SHR AND PUSH1 0x20 DUP6 ADD MSTORE DUP2 DUP2 PUSH1 0xA8 SHR AND PUSH1 0x40 DUP6 ADD MSTORE PUSH1 0xB0 SHR AND ISZERO ISZERO PUSH1 0x60 DUP4 ADD MSTORE PUSH1 0x80 DUP3 ADD MSTORE RETURN JUMPDEST DUP3 CALLVALUE PUSH2 0xCB2 JUMPI DUP1 PUSH1 0x3 NOT CALLDATASIZE ADD SLT PUSH2 0xCB2 JUMPI PUSH1 0xB SLOAD DUP2 DUP1 JUMPDEST DUP3 DUP2 LT PUSH2 0x17C9 JUMPI POP PUSH2 0x16FD PUSH2 0x16E7 DUP5 PUSH2 0x1C5B JUMP JUMPDEST SWAP4 PUSH2 0x16F5 PUSH1 0x40 MLOAD SWAP6 DUP7 PUSH2 0x1B8E JUMP JUMPDEST DUP1 DUP6 MSTORE PUSH2 0x1C5B JUMP JUMPDEST PUSH1 0x20 SWAP3 DUP5 DUP5 ADD SWAP3 SWAP2 PUSH1 0x1F NOT ADD CALLDATASIZE DUP5 CALLDATACOPY DUP2 DUP3 JUMPDEST DUP3 DUP2 LT PUSH2 0x1757 JUMPI POP POP POP PUSH1 0x40 MLOAD SWAP4 DUP4 DUP6 SWAP5 DUP6 ADD SWAP2 DUP2 DUP7 MSTORE MLOAD DUP1 SWAP3 MSTORE PUSH1 0x40 DUP6 ADD SWAP4 SWAP3 JUMPDEST DUP3 DUP2 LT PUSH2 0x1740 JUMPI POP POP POP POP SUB SWAP1 RETURN JUMPDEST DUP4 MLOAD DUP6 MSTORE DUP7 SWAP6 POP SWAP4 DUP2 ADD SWAP4 SWAP3 DUP2 ADD SWAP3 PUSH1 0x1 ADD PUSH2 0x1731 JUMP JUMPDEST PUSH2 0x1765 DUP2 SWAP8 SWAP6 SWAP7 SWAP5 SWAP8 PUSH2 0x1A06 JUMP JUMPDEST SWAP1 SLOAD PUSH1 0x3 SWAP2 DUP3 SHL SHR DUP9 MSTORE PUSH1 0x5 DUP6 MSTORE PUSH1 0xFF PUSH1 0x8 PUSH1 0x40 DUP11 KECCAK256 ADD SLOAD PUSH1 0x10 SHR AND ISZERO PUSH2 0x179B JUMPI JUMPDEST POP PUSH2 0x1791 SWAP1 PUSH2 0x19E1 JUMP JUMPDEST SWAP6 SWAP3 SWAP5 SWAP4 SWAP6 PUSH2 0x170F JUMP JUMPDEST DUP2 SWAP3 PUSH2 0x17C2 SWAP2 PUSH2 0x17AD PUSH2 0x1791 SWAP5 PUSH2 0x1A06 JUMP JUMPDEST SWAP1 SLOAD SWAP2 SHL SHR PUSH2 0x17BC DUP3 DUP10 PUSH2 0x1C73 JUMP JUMPDEST MSTORE PUSH2 0x19E1 JUMP JUMPDEST SWAP2 SWAP1 PUSH2 0x1787 JUMP JUMPDEST PUSH2 0x17D5 DUP2 SWAP5 SWAP3 SWAP5 PUSH2 0x1A06 JUMP JUMPDEST SWAP1 SLOAD SWAP1 PUSH1 0x3 SHL SHR DUP5 MSTORE PUSH1 0x5 PUSH1 0x20 MSTORE PUSH1 0xFF PUSH1 0x8 PUSH1 0x40 DUP7 KECCAK256 ADD SLOAD PUSH1 0x10 SHR AND ISZERO PUSH2 0x1808 JUMPI JUMPDEST PUSH2 0x1800 SWAP1 PUSH2 0x19E1 JUMP JUMPDEST SWAP3 SWAP1 SWAP3 PUSH2 0x16D3 JUMP JUMPDEST SWAP1 PUSH2 0x1815 PUSH2 0x1800 SWAP2 PUSH2 0x19E1 JUMP JUMPDEST SWAP2 SWAP1 POP PUSH2 0x17F7 JUMP JUMPDEST SWAP2 SWAP1 POP CALLVALUE PUSH2 0x9B3 JUMPI PUSH1 0x20 CALLDATASIZE PUSH1 0x3 NOT ADD SLT PUSH2 0x9B3 JUMPI PUSH1 0x40 PUSH2 0x1E0 SWAP4 DUP3 CALLDATALOAD DUP2 MSTORE PUSH1 0x5 PUSH1 0x20 MSTORE KECCAK256 DUP1 SLOAD SWAP1 PUSH1 0x1 DUP1 PUSH1 0xA0 SHL SUB PUSH1 0x1 DUP3 ADD SLOAD AND SWAP3 PUSH1 0x3 DUP3 ADD SLOAD SWAP1 DUP3 ADD SLOAD SWAP4 PUSH1 0x5 DUP4 ADD SLOAD SWAP2 PUSH1 0x6 DUP5 ADD SLOAD SWAP6 PUSH1 0x7 DUP6 ADD SLOAD SWAP2 PUSH1 0x8 DUP7 ADD SLOAD SWAP4 PUSH1 0xA PUSH1 0x9 DUP9 ADD SLOAD SWAP8 ADD SLOAD SWAP8 DUP11 MSTORE PUSH1 0x20 DUP11 ADD MSTORE PUSH1 0x40 DUP10 ADD MSTORE PUSH1 0x60 DUP9 ADD MSTORE PUSH1 0xFF SWAP6 DUP7 DUP5 DUP2 DUP1 SWAP7 AND PUSH1 0x80 DUP12 ADD MSTORE DUP2 DUP2 PUSH1 0x8 SHR AND PUSH1 0xA0 DUP12 ADD MSTORE PUSH1 0x10 SHR AND PUSH1 0xC0 DUP10 ADD MSTORE PUSH1 0xE0 DUP9 ADD MSTORE PUSH2 0x100 DUP8 ADD MSTORE DUP2 DUP2 AND ISZERO ISZERO PUSH2 0x120 DUP8 ADD MSTORE DUP2 DUP2 PUSH1 0x8 SHR AND ISZERO ISZERO PUSH2 0x140 DUP8 ADD MSTORE PUSH1 0x10 SHR AND ISZERO ISZERO PUSH2 0x160 DUP6 ADD MSTORE PUSH2 0x180 DUP5 ADD MSTORE DUP2 DUP2 AND PUSH2 0x1A0 DUP5 ADD MSTORE PUSH1 0x8 SHR AND PUSH2 0x1C0 DUP3 ADD MSTORE RETURN JUMPDEST PUSH1 0x60 SWAP1 PUSH1 0x3 NOT ADD SLT PUSH2 0x192B JUMPI PUSH1 0x4 CALLDATALOAD SWAP1 PUSH1 0x24 CALLDATALOAD PUSH1 0xFF DUP2 AND DUP2 SUB PUSH2 0x192B JUMPI SWAP1 PUSH1 0x44 CALLDATALOAD PUSH1 0xFF DUP2 AND DUP2 SUB PUSH2 0x192B JUMPI SWAP1 JUMP JUMPDEST PUSH1 0x0 DUP1 REVERT JUMPDEST DUP1 SLOAD DUP3 LT ISZERO PUSH2 0x194C JUMPI PUSH1 0x0 MSTORE PUSH1 0x20 PUSH1 0x0 KECCAK256 SWAP1 PUSH1 0x1 SHL ADD SWAP1 PUSH1 0x0 SWAP1 JUMP JUMPDEST PUSH4 0x4E487B71 PUSH1 0xE0 SHL PUSH1 0x0 MSTORE PUSH1 0x32 PUSH1 0x4 MSTORE PUSH1 0x24 PUSH1 0x0 REVERT JUMPDEST PUSH1 0x24 CALLDATALOAD SWAP1 PUSH1 0x1 PUSH1 0x1 PUSH1 0xA0 SHL SUB DUP3 AND DUP3 SUB PUSH2 0x192B JUMPI JUMP JUMPDEST SWAP1 DUP2 MLOAD DUP1 DUP3 MSTORE PUSH1 0x20 DUP1 DUP1 SWAP4 ADD SWAP4 ADD SWAP2 PUSH1 0x0 JUMPDEST DUP3 DUP2 LT PUSH2 0x1998 JUMPI POP POP POP POP SWAP1 JUMP JUMPDEST DUP4 MLOAD PUSH1 0x1 PUSH1 0x1 PUSH1 0xA0 SHL SUB AND DUP6 MSTORE SWAP4 DUP2 ADD SWAP4 SWAP3 DUP2 ADD SWAP3 PUSH1 0x1 ADD PUSH2 0x198A JUMP JUMPDEST PUSH1 0x0 SLOAD PUSH1 0x1 PUSH1 0x1 PUSH1 0xA0 SHL SUB AND CALLER SUB PUSH2 0x19C9 JUMPI JUMP JUMPDEST PUSH1 0x40 MLOAD PUSH4 0x118CDAA7 PUSH1 0xE0 SHL DUP2 MSTORE CALLER PUSH1 0x4 DUP3 ADD MSTORE PUSH1 0x24 SWAP1 REVERT JUMPDEST PUSH1 0x0 NOT DUP2 EQ PUSH2 0x19F0 JUMPI PUSH1 0x1 ADD SWAP1 JUMP JUMPDEST PUSH4 0x4E487B71 PUSH1 0xE0 SHL PUSH1 0x0 MSTORE PUSH1 0x11 PUSH1 0x4 MSTORE PUSH1 0x24 PUSH1 0x0 REVERT JUMPDEST PUSH1 0xB SLOAD DUP2 LT ISZERO PUSH2 0x194C JUMPI PUSH1 0xB PUSH1 0x0 MSTORE PUSH32 0x175B7A638427703F0DBE7BB9BBF987A2551717B34E79F33B5B1008D1FA01DB9 ADD SWAP1 PUSH1 0x0 SWAP1 JUMP JUMPDEST DUP1 SLOAD DUP3 LT ISZERO PUSH2 0x194C JUMPI PUSH1 0x0 MSTORE PUSH1 0x20 PUSH1 0x0 KECCAK256 ADD SWAP1 PUSH1 0x0 SWAP1 JUMP JUMPDEST DUP1 SLOAD PUSH1 0x1 PUSH1 0x40 SHL DUP2 LT ISZERO PUSH2 0x1A90 JUMPI PUSH2 0x1A72 SWAP2 PUSH1 0x1 DUP3 ADD DUP2 SSTORE PUSH2 0x1A3D JUMP JUMPDEST DUP2 SWAP3 SWAP2 SLOAD SWAP1 PUSH1 0x3 SHL SWAP2 PUSH1 0x1 DUP1 PUSH1 0xA0 SHL SUB DUP1 SWAP2 AND DUP4 SHL SWAP3 SHL NOT AND OR SWAP1 SSTORE JUMP JUMPDEST PUSH4 0x4E487B71 PUSH1 0xE0 SHL PUSH1 0x0 MSTORE PUSH1 0x41 PUSH1 0x4 MSTORE PUSH1 0x24 PUSH1 0x0 REVERT JUMPDEST PUSH1 0xFF PUSH1 0x2 SLOAD AND PUSH2 0x1AB2 JUMPI JUMP JUMPDEST PUSH1 0x40 MLOAD PUSH4 0xD93C0665 PUSH1 0xE0 SHL DUP2 MSTORE PUSH1 0x4 SWAP1 REVERT JUMPDEST PUSH1 0x2 PUSH1 0x1 SLOAD EQ PUSH2 0x1AD5 JUMPI PUSH1 0x2 PUSH1 0x1 SSTORE JUMP JUMPDEST PUSH1 0x40 MLOAD PUSH4 0x3EE5AEB5 PUSH1 0xE0 SHL DUP2 MSTORE PUSH1 0x4 SWAP1 REVERT JUMPDEST SWAP2 SWAP1 DUP3 ADD DUP1 SWAP3 GT PUSH2 0x19F0 JUMPI JUMP JUMPDEST ISZERO PUSH2 0x1AFB JUMPI JUMP JUMPDEST PUSH1 0x40 MLOAD PUSH3 0x461BCD PUSH1 0xE5 SHL DUP2 MSTORE PUSH1 0x20 PUSH1 0x4 DUP3 ADD MSTORE PUSH1 0xF PUSH1 0x24 DUP3 ADD MSTORE PUSH15 0x47616D65206E6F7420616374697665 PUSH1 0x88 SHL PUSH1 0x44 DUP3 ADD MSTORE PUSH1 0x64 SWAP1 REVERT JUMPDEST ISZERO PUSH2 0x1B39 JUMPI JUMP JUMPDEST PUSH1 0x40 MLOAD PUSH3 0x461BCD PUSH1 0xE5 SHL DUP2 MSTORE PUSH1 0x20 PUSH1 0x4 DUP3 ADD MSTORE PUSH1 0x11 PUSH1 0x24 DUP3 ADD MSTORE PUSH17 0x141B185E595C88195B1A5B5A5B985D1959 PUSH1 0x7A SHL PUSH1 0x44 DUP3 ADD MSTORE PUSH1 0x64 SWAP1 REVERT JUMPDEST PUSH1 0xA0 DUP2 ADD SWAP1 DUP2 LT PUSH8 0xFFFFFFFFFFFFFFFF DUP3 GT OR PUSH2 0x1A90 JUMPI PUSH1 0x40 MSTORE JUMP JUMPDEST SWAP1 PUSH1 0x1F DUP1 NOT SWAP2 ADD AND DUP2 ADD SWAP1 DUP2 LT PUSH8 0xFFFFFFFFFFFFFFFF DUP3 GT OR PUSH2 0x1A90 JUMPI PUSH1 0x40 MSTORE JUMP JUMPDEST DUP2 ISZERO PUSH2 0x1BBA JUMPI DIV SWAP1 JUMP JUMPDEST PUSH4 0x4E487B71 PUSH1 0xE0 SHL PUSH1 0x0 MSTORE PUSH1 0x12 PUSH1 0x4 MSTORE PUSH1 0x24 PUSH1 0x0 REVERT JUMPDEST SWAP2 SWAP1 DUP3 SUB SWAP2 DUP3 GT PUSH2 0x19F0 JUMPI JUMP JUMPDEST RETURNDATASIZE ISZERO PUSH2 0x1C18 JUMPI RETURNDATASIZE SWAP1 PUSH8 0xFFFFFFFFFFFFFFFF DUP3 GT PUSH2 0x1A90 JUMPI PUSH1 0x40 MLOAD SWAP2 PUSH2 0x1C0C PUSH1 0x1F DUP3 ADD PUSH1 0x1F NOT AND PUSH1 0x20 ADD DUP5 PUSH2 0x1B8E JUMP JUMPDEST DUP3 MSTORE RETURNDATASIZE PUSH1 0x0 PUSH1 0x20 DUP5 ADD RETURNDATACOPY JUMP JUMPDEST PUSH1 0x60 SWAP1 JUMP JUMPDEST ISZERO PUSH2 0x1C24 JUMPI JUMP JUMPDEST PUSH1 0x40 MLOAD PUSH3 0x461BCD PUSH1 0xE5 SHL DUP2 MSTORE PUSH1 0x20 PUSH1 0x4 DUP3 ADD MSTORE PUSH1 0xF PUSH1 0x24 DUP3 ADD MSTORE PUSH15 0x151C985B9CD9995C8819985A5B1959 PUSH1 0x8A SHL PUSH1 0x44 DUP3 ADD MSTORE PUSH1 0x64 SWAP1 REVERT JUMPDEST PUSH8 0xFFFFFFFFFFFFFFFF DUP2 GT PUSH2 0x1A90 JUMPI PUSH1 0x5 SHL PUSH1 0x20 ADD SWAP1 JUMP JUMPDEST DUP1 MLOAD DUP3 LT ISZERO PUSH2 0x194C JUMPI PUSH1 0x20 SWAP2 PUSH1 0x5 SHL ADD ADD SWAP1 JUMP JUMPDEST SWAP1 PUSH1 0x0 SWAP2 DUP1 DUP4 MSTORE PUSH1 0x5 PUSH1 0x20 MSTORE PUSH1 0x40 DUP4 KECCAK256 SWAP1 PUSH2 0x1CA5 PUSH1 0x2 DUP4 ADD SLOAD PUSH2 0x1D87 JUMP JUMPDEST SWAP1 DUP2 PUSH1 0x5 DUP6 ADD SWAP3 PUSH1 0x1 PUSH1 0xFF DUP6 SLOAD PUSH1 0x8 SHR AND GT PUSH2 0x1D4C JUMPI JUMPDEST POP PUSH1 0xA DUP6 ADD DUP1 SLOAD PUSH2 0xFFFF NOT AND PUSH1 0xFF SWAP1 SWAP4 AND SWAP3 SWAP1 SWAP3 OR PUSH1 0x8 SWAP2 SWAP1 SWAP2 SHL PUSH2 0xFF00 AND OR SWAP1 SSTORE JUMPDEST SLOAD PUSH1 0x40 MLOAD SWAP1 PUSH1 0x20 DUP3 ADD SWAP3 PREVRANDAO DUP5 MSTORE TIMESTAMP PUSH1 0x40 DUP5 ADD MSTORE PUSH1 0x60 DUP4 ADD MSTORE PUSH1 0xFF PUSH1 0xF8 SHL SWAP1 PUSH1 0xF0 SHL AND PUSH1 0x80 DUP3 ADD MSTORE NUMBER PUSH1 0x81 DUP3 ADD MSTORE PUSH1 0x81 DUP2 MSTORE PUSH1 0xC0 DUP2 ADD DUP2 DUP2 LT PUSH8 0xFFFFFFFFFFFFFFFF DUP3 GT OR PUSH2 0x1D38 JUMPI PUSH1 0x9 SWAP4 SWAP5 SWAP6 POP PUSH1 0x40 MSTORE MLOAD SWAP1 KECCAK256 SWAP2 ADD SSTORE JUMP JUMPDEST PUSH4 0x4E487B71 PUSH1 0xE0 SHL DUP7 MSTORE PUSH1 0x41 PUSH1 0x4 MSTORE PUSH1 0x24 DUP7 REVERT JUMPDEST PUSH1 0xFF SWAP2 POP AND PUSH1 0x78 DUP2 MUL SWAP1 DUP1 DUP3 DIV PUSH1 0x78 EQ SWAP1 ISZERO OR ISZERO PUSH2 0x1D73 JUMPI PUSH1 0x64 SWAP1 DIV PUSH1 0xFF AND PUSH2 0x1CDF PUSH2 0x1CBC JUMP JUMPDEST PUSH4 0x4E487B71 PUSH1 0xE0 SHL DUP8 MSTORE PUSH1 0x11 PUSH1 0x4 MSTORE PUSH1 0x24 DUP8 REVERT JUMPDEST PUSH1 0x2 DUP2 GT ISZERO PUSH2 0x1DCB JUMPI PUSH1 0x4 DUP2 GT ISZERO PUSH2 0x1DC2 JUMPI PUSH1 0x6 DUP2 GT ISZERO PUSH2 0x1DBA JUMPI PUSH1 0x8 LT ISZERO PUSH2 0x1DB2 JUMPI PUSH1 0xC SWAP1 PUSH1 0x12 SWAP1 JUMP JUMPDEST PUSH1 0xA SWAP1 PUSH1 0xC SWAP1 JUMP JUMPDEST POP PUSH1 0x8 SWAP1 DUP2 SWAP1 JUMP JUMPDEST POP PUSH1 0x6 SWAP1 PUSH1 0x5 SWAP1 JUMP JUMPDEST POP PUSH1 0x5 SWAP1 PUSH1 0x3 SWAP1 JUMP JUMPDEST DUP2 ISZERO PUSH2 0x1BBA JUMPI MOD SWAP1 JUMP JUMPDEST SWAP2 SWAP3 SWAP1 SWAP3 PUSH1 0x0 SWAP3 DUP4 MSTORE PUSH1 0x20 SWAP4 PUSH1 0x5 DUP6 MSTORE PUSH1 0x40 SWAP4 DUP5 DUP2 KECCAK256 SWAP5 DUP2 SWAP7 PUSH1 0xA DUP8 ADD SLOAD SWAP1 PUSH1 0xFF SWAP4 DUP5 DUP4 AND SWAP4 DUP5 DUP1 MUL SWAP4 DUP6 DUP6 DIV DUP7 EQ DUP7 ISZERO OR ISZERO PUSH2 0x1EF1 JUMPI PUSH1 0x9 DUP4 SWAP13 SWAP6 SWAP12 ADD SLOAD SWAP5 JUMPDEST DUP12 DUP14 LT DUP1 PUSH2 0x1EE3 JUMPI JUMPDEST ISZERO PUSH2 0x1ED3 JUMPI DUP13 DUP4 MLOAD DUP7 DUP2 ADD SWAP2 DUP9 DUP4 MSTORE DUP6 DUP3 ADD MSTORE DUP5 DUP2 MSTORE PUSH1 0x60 DUP2 ADD DUP2 DUP2 LT PUSH8 0xFFFFFFFFFFFFFFFF DUP3 GT OR PUSH2 0x1EBF JUMPI DUP6 MSTORE MLOAD SWAP1 KECCAK256 DUP9 PUSH2 0x1E74 DUP10 DUP3 PUSH2 0x1E6A DUP3 DUP7 PUSH2 0x1DD4 JUMP JUMPDEST AND SWAP4 PUSH1 0x8 SHR PUSH2 0x1DD4 JUMP JUMPDEST AND SWAP1 DUP10 DUP12 AND EQ SWAP1 DUP2 PUSH2 0x1EB3 JUMPI JUMPDEST POP PUSH2 0x1EA1 JUMPI PUSH2 0x1E99 PUSH2 0x1E93 DUP10 SWAP3 PUSH2 0x19E1 JUMP JUMPDEST SWAP14 PUSH2 0x19E1 JUMP JUMPDEST SWAP13 SWAP1 POP PUSH2 0x1E1F JUMP JUMPDEST POP POP POP POP POP POP POP POP POP POP SWAP2 POP POP PUSH1 0x1 SWAP1 JUMP JUMPDEST SWAP1 POP DUP9 DUP12 AND EQ CODESIZE PUSH2 0x1E81 JUMP JUMPDEST PUSH4 0x4E487B71 PUSH1 0xE0 SHL DUP8 MSTORE PUSH1 0x41 PUSH1 0x4 MSTORE PUSH1 0x24 DUP8 REVERT JUMPDEST POP POP POP SWAP8 POP POP POP POP POP POP POP SWAP2 POP SWAP1 JUMP JUMPDEST POP DUP8 DUP3 PUSH1 0x8 SHR AND DUP2 LT PUSH2 0x1E28 JUMP JUMPDEST PUSH4 0x4E487B71 PUSH1 0xE0 SHL DUP4 MSTORE PUSH1 0x11 PUSH1 0x4 MSTORE PUSH1 0x24 DUP4 REVERT JUMPDEST PUSH1 0xFF AND PUSH1 0xFF DUP2 EQ PUSH2 0x19F0 JUMPI PUSH1 0x1 ADD SWAP1 JUMP JUMPDEST PUSH1 0x0 DUP2 DUP2 MSTORE PUSH1 0x5 PUSH1 0x20 DUP2 DUP2 MSTORE PUSH1 0x40 DUP1 DUP5 KECCAK256 SWAP5 SWAP3 SWAP4 PUSH1 0x1 SWAP3 PUSH1 0x2 SWAP3 SWAP1 SWAP2 SWAP1 DUP2 DUP9 DUP9 ADD DUP6 DUP11 ADD DUP8 DUP1 JUMPDEST PUSH2 0x1F62 JUMPI JUMPDEST POP POP POP POP POP POP POP POP POP POP POP PUSH1 0x6 PUSH2 0x1F5D PUSH1 0x7 DUP4 ADD SLOAD TIMESTAMP PUSH2 0x1AE7 JUMP JUMPDEST SWAP2 ADD SSTORE JUMP JUMPDEST ISZERO PUSH2 0x20E0 JUMPI JUMPDEST DUP3 PUSH1 0xFF DUP4 SLOAD SWAP7 DUP11 DUP3 PUSH1 0x10 SWAP10 DUP11 SHR AND ADD DUP3 DUP2 GT PUSH2 0x1D73 JUMPI SWAP1 PUSH2 0x1FAB DUP4 PUSH2 0x1F94 PUSH2 0x1FB0 SWAP5 DUP3 DUP10 SLOAD SWAP2 AND PUSH2 0x1DD4 JUMP JUMPDEST DUP9 SLOAD PUSH3 0xFF0000 NOT AND SWAP2 AND PUSH1 0x10 SHL PUSH3 0xFF0000 AND OR DUP8 SSTORE JUMP JUMPDEST PUSH2 0x1F05 JUMP JUMPDEST SWAP7 DUP4 SLOAD DUP3 DUP10 AND LT ISZERO PUSH2 0x1FC4 JUMPI POP POP DUP9 PUSH2 0x1F3D JUMP JUMPDEST SWAP5 SWAP6 SWAP7 POP SWAP7 SWAP8 SWAP9 SWAP10 SWAP11 SWAP12 POP POP POP POP DUP8 DUP3 MSTORE DUP9 DUP6 MSTORE DUP7 DUP4 DUP4 KECCAK256 SWAP10 DUP11 ADD SWAP7 PUSH2 0x2031 PUSH2 0x201B DUP8 DUP11 SLOAD PUSH1 0x8 SHR AND DUP13 PUSH32 0xB8A5EDA082A9BEAD12E2AAD412CC2910CE57BA364F92A818C8185E9CA9185C4D DUP12 DUP11 MLOAD DUP5 DUP2 MSTORE LOG2 PUSH2 0x1F05 JUMP JUMPDEST DUP10 SLOAD PUSH2 0xFF00 NOT AND PUSH1 0x8 SWAP2 SWAP1 SWAP2 SHL PUSH2 0xFF00 AND OR DUP10 SSTORE JUMP JUMPDEST DUP8 SLOAD PUSH3 0xFF0000 NOT AND DUP9 SSTORE DUP11 ADD SWAP8 JUMPDEST PUSH2 0x2065 JUMPI JUMPDEST POP POP POP POP POP POP POP POP PUSH2 0x2055 SWAP1 PUSH2 0x1C87 JUMP JUMPDEST PUSH1 0x6 PUSH2 0x1F5D PUSH1 0x7 DUP4 ADD SLOAD TIMESTAMP PUSH2 0x1AE7 JUMP JUMPDEST DUP5 DUP8 SLOAD DUP4 SHR AND DUP9 SLOAD DUP2 LT DUP1 PUSH2 0x20AA JUMPI JUMPDEST ISZERO PUSH2 0x20A4 JUMPI PUSH2 0x2086 PUSH2 0x209E SWAP2 PUSH2 0x1F05 JUMP JUMPDEST DUP9 SLOAD PUSH3 0xFF0000 NOT AND PUSH1 0x10 SWAP2 SWAP1 SWAP2 SHL PUSH3 0xFF0000 AND OR DUP9 SSTORE JUMP JUMPDEST DUP1 PUSH2 0x203F JUMP JUMPDEST POP PUSH2 0x2044 JUMP JUMPDEST POP DUP10 DUP5 MSTORE PUSH1 0x6 DUP8 MSTORE DUP5 DUP5 KECCAK256 PUSH2 0x20BF DUP3 DUP12 PUSH2 0x1A3D JUMP JUMPDEST SWAP1 SLOAD PUSH1 0x3 SWAP2 SWAP1 SWAP2 SHL SHR PUSH1 0x1 PUSH1 0x1 PUSH1 0xA0 SHL SUB AND DUP6 MSTORE DUP8 MSTORE DUP5 DUP5 KECCAK256 SLOAD DUP7 AND PUSH2 0x2075 JUMP JUMPDEST DUP9 DUP4 MSTORE PUSH1 0x6 DUP7 MSTORE DUP4 DUP4 KECCAK256 PUSH1 0xFF SWAP1 PUSH2 0x20FD DUP3 DUP6 SLOAD PUSH1 0x10 SHR AND DUP5 PUSH2 0x1A3D JUMP JUMPDEST SWAP1 SLOAD PUSH1 0x3 SWAP2 SWAP1 SWAP2 SHL SHR PUSH1 0x1 PUSH1 0x1 PUSH1 0xA0 SHL SUB AND DUP6 MSTORE DUP8 MSTORE DUP5 DUP5 KECCAK256 SLOAD AND PUSH2 0x1F68 JUMPI DUP1 PUSH2 0x1F42 JUMP JUMPDEST PUSH1 0x0 DUP2 DUP2 MSTORE PUSH1 0x5 PUSH1 0x20 SWAP1 DUP2 MSTORE PUSH1 0x40 DUP1 DUP4 KECCAK256 PUSH1 0x2 ADD DUP1 SLOAD SWAP4 SWAP5 DUP6 SWAP4 SWAP1 SWAP3 DUP5 JUMPDEST DUP7 DUP2 LT PUSH2 0x21FE JUMPI POP PUSH2 0x2151 DUP8 PUSH2 0x1C5B JUMP JUMPDEST SWAP7 PUSH2 0x215E DUP3 MLOAD SWAP9 DUP10 PUSH2 0x1B8E JUMP JUMPDEST DUP1 DUP9 MSTORE PUSH2 0x216D PUSH1 0x1F NOT SWAP2 PUSH2 0x1C5B JUMP JUMPDEST ADD CALLDATASIZE DUP4 DUP10 ADD CALLDATACOPY DUP5 SWAP4 DUP6 JUMPDEST DUP8 DUP2 LT PUSH2 0x2189 JUMPI POP POP POP POP POP POP POP POP SWAP1 JUMP JUMPDEST DUP2 DUP8 MSTORE PUSH1 0x6 DUP5 MSTORE DUP3 DUP8 KECCAK256 PUSH2 0x219D DUP3 DUP8 PUSH2 0x1A3D JUMP JUMPDEST SWAP1 SLOAD PUSH1 0x3 SWAP2 DUP3 SHL SHR PUSH1 0x1 PUSH1 0x1 PUSH1 0xA0 SHL SUB SWAP1 DUP2 AND DUP11 MSTORE SWAP2 DUP7 MSTORE DUP5 DUP10 KECCAK256 SLOAD PUSH1 0xFF AND ISZERO PUSH2 0x21D2 JUMPI JUMPDEST POP POP PUSH2 0x21CD SWAP1 PUSH2 0x19E1 JUMP JUMPDEST PUSH2 0x2177 JUMP JUMPDEST SWAP7 PUSH2 0x21F6 SWAP2 DUP4 SWAP9 PUSH2 0x21E6 PUSH2 0x21CD SWAP6 DUP11 PUSH2 0x1A3D JUMP JUMPDEST SWAP1 SLOAD SWAP2 SHL SHR AND PUSH2 0x17BC DUP3 DUP14 PUSH2 0x1C73 JUMP JUMPDEST SWAP6 SWAP1 CODESIZE PUSH2 0x21C2 JUMP JUMPDEST DUP5 DUP7 MSTORE PUSH1 0x6 DUP4 MSTORE DUP2 DUP7 KECCAK256 PUSH2 0x2212 DUP3 DUP7 PUSH2 0x1A3D JUMP JUMPDEST SWAP1 SLOAD PUSH1 0x3 SWAP2 SWAP1 SWAP2 SHL SHR PUSH1 0x1 PUSH1 0x1 PUSH1 0xA0 SHL SUB AND DUP8 MSTORE DUP4 MSTORE DUP2 DUP7 KECCAK256 SLOAD PUSH1 0xFF AND ISZERO PUSH2 0x2243 JUMPI JUMPDEST PUSH2 0x223E SWAP1 PUSH2 0x19E1 JUMP JUMPDEST PUSH2 0x2140 JUMP JUMPDEST SWAP7 PUSH2 0x2250 PUSH2 0x223E SWAP2 PUSH2 0x19E1 JUMP JUMPDEST SWAP8 SWAP1 POP PUSH2 0x2235 JUMP INVALID LOG2 PUSH5 0x6970667358 0x22 SLT KECCAK256 0xB2 REVERT POP DUP8 SLT 0xE4 CHAINID 0xF 0xC2 SLOAD 0xC 0x4C LOG2 SMOD 0x23 0xE0 PUSH19 0x7B011D585FB330218E0E3EFDB4E81564736F6C PUSH4 0x43000814 STOP CALLER "},"methodIdentifiers":{"claimWinnings(uint256)":"677bd9ff","createGame(uint256,uint8,uint256,bool)":"50671f9b","eliminated(uint256,address)":"ca4fab06","gameMoves(uint256,uint256)":"2a02ac63","games(uint256)":"117a5b90","getActiveGames()":"1b76929c","getGameMoves(uint256)":"6b280747","getGameState(uint256)":"ffde0c74","getPlayerStatus(uint256,address)":"958b3bd3","hasClaimedWinnings(uint256,address)":"d7fb1f63","hasJoined(uint256,address)":"68194719","isTileRevealed(uint256,uint8,uint8)":"5738dcc6","joinGame(uint256)":"efaa55a0","owner()":"8da5cb5b","pause()":"8456cb59","paused()":"5c975abb","renounceOwnership()":"715018a6","revealTile(uint256,uint8,uint8)":"f043145b","revealedTiles(uint256,uint8,uint8)":"185644fd","skipTurn(uint256)":"ce371cbd","startGame(uint256)":"e5ed1d59","totalFeesCollected()":"60c6d8ae","transferOwnership(address)":"f2fde38b","unpause()":"3f4ba83a","withdrawFees()":"476343ee"}}}}}