{
  "_format": "hh-sol-artifact-1",
  "contractName": "MinesweeperBattle",
  "sourceName": "contracts/MinesweeperBattle.sol",
  "abi": [
    {
      "inputs": [],
      "stateMutability": "nonpayable",
      "type": "constructor"
    },
    {
      "inputs": [],
      "name": "EnforcedPause",
      "type": "error"
    },
    {
      "inputs": [],
      "name": "ExpectedPause",
      "type": "error"
    },
    {
      "inputs": [
        {
          "internalType": "address",
          "name": "owner",
          "type": "address"
        }
      ],
      "name": "OwnableInvalidOwner",
      "type": "error"
    },
    {
      "inputs": [
        {
          "internalType": "address",
          "name": "account",
          "type": "address"
        }
      ],
      "name": "OwnableUnauthorizedAccount",
      "type": "error"
    },
    {
      "inputs": [],
      "name": "ReentrancyGuardReentrantCall",
      "type": "error"
    },
    {
      "anonymous": false,
      "inputs": [
        {
          "indexed": true,
          "internalType": "uint256",
          "name": "gameId",
          "type": "uint256"
        },
        {
          "indexed": true,
          "internalType": "address",
          "name": "creator",
          "type": "address"
        },
        {
          "indexed": false,
          "internalType": "uint256",
          "name": "entryFee",
          "type": "uint256"
        },
        {
          "indexed": false,
          "internalType": "uint8",
          "name": "maxPlayers",
          "type": "uint8"
        },
        {
          "indexed": false,
          "internalType": "bool",
          "name": "isPublic",
          "type": "bool"
        }
      ],
      "name": "GameCreated",
      "type": "event"
    },
    {
      "anonymous": false,
      "inputs": [
        {
          "indexed": true,
          "internalType": "uint256",
          "name": "gameId",
          "type": "uint256"
        },
        {
          "indexed": false,
          "internalType": "address[]",
          "name": "winners",
          "type": "address[]"
        },
        {
          "indexed": false,
          "internalType": "uint256",
          "name": "prizePerWinner",
          "type": "uint256"
        }
      ],
      "name": "GameFinished",
      "type": "event"
    },
    {
      "anonymous": false,
      "inputs": [
        {
          "indexed": true,
          "internalType": "uint256",
          "name": "gameId",
          "type": "uint256"
        },
        {
          "indexed": false,
          "internalType": "uint256",
          "name": "timestamp",
          "type": "uint256"
        }
      ],
      "name": "GameStarted",
      "type": "event"
    },
    {
      "anonymous": false,
      "inputs": [
        {
          "indexed": true,
          "internalType": "address",
          "name": "previousOwner",
          "type": "address"
        },
        {
          "indexed": true,
          "internalType": "address",
          "name": "newOwner",
          "type": "address"
        }
      ],
      "name": "OwnershipTransferred",
      "type": "event"
    },
    {
      "anonymous": false,
      "inputs": [
        {
          "indexed": false,
          "internalType": "address",
          "name": "account",
          "type": "address"
        }
      ],
      "name": "Paused",
      "type": "event"
    },
    {
      "anonymous": false,
      "inputs": [
        {
          "indexed": true,
          "internalType": "uint256",
          "name": "gameId",
          "type": "uint256"
        },
        {
          "indexed": true,
          "internalType": "address",
          "name": "player",
          "type": "address"
        }
      ],
      "name": "PlayerEliminated",
      "type": "event"
    },
    {
      "anonymous": false,
      "inputs": [
        {
          "indexed": true,
          "internalType": "uint256",
          "name": "gameId",
          "type": "uint256"
        },
        {
          "indexed": true,
          "internalType": "address",
          "name": "player",
          "type": "address"
        }
      ],
      "name": "PlayerJoined",
      "type": "event"
    },
    {
      "anonymous": false,
      "inputs": [
        {
          "indexed": true,
          "internalType": "uint256",
          "name": "gameId",
          "type": "uint256"
        },
        {
          "indexed": false,
          "internalType": "uint8",
          "name": "round",
          "type": "uint8"
        }
      ],
      "name": "RoundCompleted",
      "type": "event"
    },
    {
      "anonymous": false,
      "inputs": [
        {
          "indexed": true,
          "internalType": "uint256",
          "name": "gameId",
          "type": "uint256"
        },
        {
          "indexed": true,
          "internalType": "address",
          "name": "player",
          "type": "address"
        },
        {
          "indexed": false,
          "internalType": "uint8",
          "name": "x",
          "type": "uint8"
        },
        {
          "indexed": false,
          "internalType": "uint8",
          "name": "y",
          "type": "uint8"
        },
        {
          "indexed": false,
          "internalType": "bool",
          "name": "hitMine",
          "type": "bool"
        }
      ],
      "name": "TileRevealed",
      "type": "event"
    },
    {
      "anonymous": false,
      "inputs": [
        {
          "indexed": true,
          "internalType": "uint256",
          "name": "gameId",
          "type": "uint256"
        },
        {
          "indexed": true,
          "internalType": "address",
          "name": "player",
          "type": "address"
        }
      ],
      "name": "TurnSkipped",
      "type": "event"
    },
    {
      "anonymous": false,
      "inputs": [
        {
          "indexed": false,
          "internalType": "address",
          "name": "account",
          "type": "address"
        }
      ],
      "name": "Unpaused",
      "type": "event"
    },
    {
      "inputs": [
        {
          "internalType": "uint256",
          "name": "_gameId",
          "type": "uint256"
        }
      ],
      "name": "claimWinnings",
      "outputs": [],
      "stateMutability": "nonpayable",
      "type": "function"
    },
    {
      "inputs": [
        {
          "internalType": "uint256",
          "name": "_entryFee",
          "type": "uint256"
        },
        {
          "internalType": "uint8",
          "name": "_maxPlayers",
          "type": "uint8"
        },
        {
          "internalType": "uint256",
          "name": "_turnDuration",
          "type": "uint256"
        },
        {
          "internalType": "bool",
          "name": "_isPublic",
          "type": "bool"
        }
      ],
      "name": "createGame",
      "outputs": [
        {
          "internalType": "uint256",
          "name": "",
          "type": "uint256"
        }
      ],
      "stateMutability": "payable",
      "type": "function"
    },
    {
      "inputs": [
        {
          "internalType": "uint256",
          "name": "",
          "type": "uint256"
        },
        {
          "internalType": "address",
          "name": "",
          "type": "address"
        }
      ],
      "name": "eliminated",
      "outputs": [
        {
          "internalType": "bool",
          "name": "",
          "type": "bool"
        }
      ],
      "stateMutability": "view",
      "type": "function"
    },
    {
      "inputs": [
        {
          "internalType": "uint256",
          "name": "",
          "type": "uint256"
        },
        {
          "internalType": "uint256",
          "name": "",
          "type": "uint256"
        }
      ],
      "name": "gameMoves",
      "outputs": [
        {
          "internalType": "address",
          "name": "player",
          "type": "address"
        },
        {
          "internalType": "uint8",
          "name": "x",
          "type": "uint8"
        },
        {
          "internalType": "uint8",
          "name": "y",
          "type": "uint8"
        },
        {
          "internalType": "bool",
          "name": "hitMine",
          "type": "bool"
        },
        {
          "internalType": "uint256",
          "name": "timestamp",
          "type": "uint256"
        }
      ],
      "stateMutability": "view",
      "type": "function"
    },
    {
      "inputs": [
        {
          "internalType": "uint256",
          "name": "",
          "type": "uint256"
        }
      ],
      "name": "games",
      "outputs": [
        {
          "internalType": "uint256",
          "name": "id",
          "type": "uint256"
        },
        {
          "internalType": "address",
          "name": "creator",
          "type": "address"
        },
        {
          "internalType": "uint256",
          "name": "entryFee",
          "type": "uint256"
        },
        {
          "internalType": "uint256",
          "name": "prizePool",
          "type": "uint256"
        },
        {
          "internalType": "uint8",
          "name": "maxPlayers",
          "type": "uint8"
        },
        {
          "internalType": "uint8",
          "name": "currentRound",
          "type": "uint8"
        },
        {
          "internalType": "uint8",
          "name": "currentTurnIndex",
          "type": "uint8"
        },
        {
          "internalType": "uint256",
          "name": "turnDeadline",
          "type": "uint256"
        },
        {
          "internalType": "uint256",
          "name": "turnDuration",
          "type": "uint256"
        },
        {
          "internalType": "bool",
          "name": "isPublic",
          "type": "bool"
        },
        {
          "internalType": "bool",
          "name": "started",
          "type": "bool"
        },
        {
          "internalType": "bool",
          "name": "finished",
          "type": "bool"
        },
        {
          "internalType": "bytes32",
          "name": "minesSeed",
          "type": "bytes32"
        },
        {
          "internalType": "uint8",
          "name": "gridSize",
          "type": "uint8"
        },
        {
          "internalType": "uint8",
          "name": "mineCount",
          "type": "uint8"
        }
      ],
      "stateMutability": "view",
      "type": "function"
    },
    {
      "inputs": [],
      "name": "getActiveGames",
      "outputs": [
        {
          "internalType": "uint256[]",
          "name": "",
          "type": "uint256[]"
        }
      ],
      "stateMutability": "view",
      "type": "function"
    },
    {
      "inputs": [
        {
          "internalType": "uint256",
          "name": "_gameId",
          "type": "uint256"
        }
      ],
      "name": "getGameMoves",
      "outputs": [
        {
          "components": [
            {
              "internalType": "address",
              "name": "player",
              "type": "address"
            },
            {
              "internalType": "uint8",
              "name": "x",
              "type": "uint8"
            },
            {
              "internalType": "uint8",
              "name": "y",
              "type": "uint8"
            },
            {
              "internalType": "bool",
              "name": "hitMine",
              "type": "bool"
            },
            {
              "internalType": "uint256",
              "name": "timestamp",
              "type": "uint256"
            }
          ],
          "internalType": "struct MinesweeperBattle.PlayerMove[]",
          "name": "",
          "type": "tuple[]"
        }
      ],
      "stateMutability": "view",
      "type": "function"
    },
    {
      "inputs": [
        {
          "internalType": "uint256",
          "name": "_gameId",
          "type": "uint256"
        }
      ],
      "name": "getGameState",
      "outputs": [
        {
          "internalType": "uint256",
          "name": "id",
          "type": "uint256"
        },
        {
          "internalType": "address",
          "name": "creator",
          "type": "address"
        },
        {
          "internalType": "address[]",
          "name": "players",
          "type": "address[]"
        },
        {
          "internalType": "uint256",
          "name": "entryFee",
          "type": "uint256"
        },
        {
          "internalType": "uint256",
          "name": "prizePool",
          "type": "uint256"
        },
        {
          "internalType": "uint8",
          "name": "maxPlayers",
          "type": "uint8"
        },
        {
          "internalType": "uint8",
          "name": "currentRound",
          "type": "uint8"
        },
        {
          "internalType": "address",
          "name": "currentPlayer",
          "type": "address"
        },
        {
          "internalType": "uint256",
          "name": "turnDeadline",
          "type": "uint256"
        },
        {
          "internalType": "uint256",
          "name": "turnDuration",
          "type": "uint256"
        },
        {
          "internalType": "bool",
          "name": "isPublic",
          "type": "bool"
        },
        {
          "internalType": "bool",
          "name": "started",
          "type": "bool"
        },
        {
          "internalType": "bool",
          "name": "finished",
          "type": "bool"
        },
        {
          "internalType": "uint8",
          "name": "gridSize",
          "type": "uint8"
        },
        {
          "internalType": "uint8",
          "name": "mineCount",
          "type": "uint8"
        }
      ],
      "stateMutability": "view",
      "type": "function"
    },
    {
      "inputs": [
        {
          "internalType": "uint256",
          "name": "_gameId",
          "type": "uint256"
        },
        {
          "internalType": "address",
          "name": "_player",
          "type": "address"
        }
      ],
      "name": "getPlayerStatus",
      "outputs": [
        {
          "internalType": "bool",
          "name": "isInGame",
          "type": "bool"
        },
        {
          "internalType": "bool",
          "name": "isEliminated",
          "type": "bool"
        },
        {
          "internalType": "bool",
          "name": "hasClaimed",
          "type": "bool"
        }
      ],
      "stateMutability": "view",
      "type": "function"
    },
    {
      "inputs": [
        {
          "internalType": "uint256",
          "name": "",
          "type": "uint256"
        },
        {
          "internalType": "address",
          "name": "",
          "type": "address"
        }
      ],
      "name": "hasClaimedWinnings",
      "outputs": [
        {
          "internalType": "bool",
          "name": "",
          "type": "bool"
        }
      ],
      "stateMutability": "view",
      "type": "function"
    },
    {
      "inputs": [
        {
          "internalType": "uint256",
          "name": "",
          "type": "uint256"
        },
        {
          "internalType": "address",
          "name": "",
          "type": "address"
        }
      ],
      "name": "hasJoined",
      "outputs": [
        {
          "internalType": "bool",
          "name": "",
          "type": "bool"
        }
      ],
      "stateMutability": "view",
      "type": "function"
    },
    {
      "inputs": [
        {
          "internalType": "uint256",
          "name": "_gameId",
          "type": "uint256"
        },
        {
          "internalType": "uint8",
          "name": "x",
          "type": "uint8"
        },
        {
          "internalType": "uint8",
          "name": "y",
          "type": "uint8"
        }
      ],
      "name": "isTileRevealed",
      "outputs": [
        {
          "internalType": "bool",
          "name": "",
          "type": "bool"
        }
      ],
      "stateMutability": "view",
      "type": "function"
    },
    {
      "inputs": [
        {
          "internalType": "uint256",
          "name": "_gameId",
          "type": "uint256"
        }
      ],
      "name": "joinGame",
      "outputs": [],
      "stateMutability": "payable",
      "type": "function"
    },
    {
      "inputs": [],
      "name": "owner",
      "outputs": [
        {
          "internalType": "address",
          "name": "",
          "type": "address"
        }
      ],
      "stateMutability": "view",
      "type": "function"
    },
    {
      "inputs": [],
      "name": "pause",
      "outputs": [],
      "stateMutability": "nonpayable",
      "type": "function"
    },
    {
      "inputs": [],
      "name": "paused",
      "outputs": [
        {
          "internalType": "bool",
          "name": "",
          "type": "bool"
        }
      ],
      "stateMutability": "view",
      "type": "function"
    },
    {
      "inputs": [],
      "name": "renounceOwnership",
      "outputs": [],
      "stateMutability": "nonpayable",
      "type": "function"
    },
    {
      "inputs": [
        {
          "internalType": "uint256",
          "name": "_gameId",
          "type": "uint256"
        },
        {
          "internalType": "uint8",
          "name": "x",
          "type": "uint8"
        },
        {
          "internalType": "uint8",
          "name": "y",
          "type": "uint8"
        }
      ],
      "name": "revealTile",
      "outputs": [],
      "stateMutability": "nonpayable",
      "type": "function"
    },
    {
      "inputs": [
        {
          "internalType": "uint256",
          "name": "",
          "type": "uint256"
        },
        {
          "internalType": "uint8",
          "name": "",
          "type": "uint8"
        },
        {
          "internalType": "uint8",
          "name": "",
          "type": "uint8"
        }
      ],
      "name": "revealedTiles",
      "outputs": [
        {
          "internalType": "bool",
          "name": "",
          "type": "bool"
        }
      ],
      "stateMutability": "view",
      "type": "function"
    },
    {
      "inputs": [
        {
          "internalType": "uint256",
          "name": "_gameId",
          "type": "uint256"
        }
      ],
      "name": "skipTurn",
      "outputs": [],
      "stateMutability": "nonpayable",
      "type": "function"
    },
    {
      "inputs": [
        {
          "internalType": "uint256",
          "name": "_gameId",
          "type": "uint256"
        }
      ],
      "name": "startGame",
      "outputs": [],
      "stateMutability": "nonpayable",
      "type": "function"
    },
    {
      "inputs": [],
      "name": "totalFeesCollected",
      "outputs": [
        {
          "internalType": "uint256",
          "name": "",
          "type": "uint256"
        }
      ],
      "stateMutability": "view",
      "type": "function"
    },
    {
      "inputs": [
        {
          "internalType": "address",
          "name": "newOwner",
          "type": "address"
        }
      ],
      "name": "transferOwnership",
      "outputs": [],
      "stateMutability": "nonpayable",
      "type": "function"
    },
    {
      "inputs": [],
      "name": "unpause",
      "outputs": [],
      "stateMutability": "nonpayable",
      "type": "function"
    },
    {
      "inputs": [],
      "name": "withdrawFees",
      "outputs": [],
      "stateMutability": "nonpayable",
      "type": "function"
    }
  ],
  "bytecode": "0x6080806040523461007e5733156100685760008054336001600160a01b03198216811783556040519290916001600160a01b0316907f8be0079c531659141344cd1fd0a4f28419497f9722a3daafe3b4186f6b6457e09080a36001805561228e90816100848239f35b631e4fbdf760e01b815260006004820152602490fd5b600080fdfe60808060405260048036101561001457600080fd5b600091823560e01c908163117a5b901461181d57508063185644fd146112545780631b76929c146116bc5780632a02ac63146116445780633f4ba83a146115da578063476343ee1461155c57806350671f9b146112925780635738dcc6146112545780635c975abb1461123157806360c6d8ae14611214578063677bd9ff14610fd55780636819471914610f8c5780636b28074714610e60578063715018a614610e065780638456cb5914610dab5780638da5cb5b14610d84578063958b3bd314610cfe578063ca4fab0614610cb5578063ce371cbd14610b6d578063d7fb1f6314610b24578063e5ed1d59146109b7578063efaa55a0146107be578063f043145b1461036f578063f2fde38b146102e35763ffde0c741461013557600080fd5b346102df5760203660031901126102df578035825260056020526040822090600882015460ff8160081c16908180926102d1575b806102c4575b156102bd5761018b60ff600586015460101c1660028601611a3d565b905460039190911b1c6001600160a01b0316915b84549460018060a01b03600182015416966002820194600383015496830154600584015490600685015493600a600787015496015498604051908192839260208354918281520192825260208220915b81811061029b57505050036102049082611b8e565b6040519b8c9b8c5260208c01526101e08060408d01528b0161022591611978565b9860608b015260808a015260ff811660a08a015260081c60ff1660c0890152600160a01b600190031660e088015261010087015261012086015260ff82161515610140860152151561016085015260101c60ff16151561018084015260ff81166101a084015260081c60ff166101c08301520390f35b82546001600160a01b03168452859450602090930192600192830192016101ef565b849161019f565b506002840154151561016f565b5060ff8160101c1615610169565b5080fd5b50346102df5760203660031901126102df576001600160a01b038135818116929083900361036b576103136119b5565b8215610353575082546001600160a01b0319811683178455167f8be0079c531659141344cd1fd0a4f28419497f9722a3daafe3b4186f6b6457e08380a380f35b604051631e4fbdf760e01b8152908101849052602490fd5b8380fd5b50346102df5761037e366118fd565b610389939193611ac4565b610391611aa6565b8285526020906005825260408620906008820154916103c160ff9384808260081c1691826107b0575b5050611af4565b858852600684526040882033895284526103e18360408a20541615611b32565b6103f783600583015460101c1660028301611a3d565b60018060a09493941b03809354339260031b1c160361077c576006810154421161074957600a015487841692908416808410908161073d575b501561070357868952600a855260408920838a528552604089209380821694858b52865260408a2054166106c75761049390878a52600a865260408a20848b52865260408a20858b52865260408a20986001998a60ff1982541617905588611dde565b928689526009855260408920604051906104ac82611b72565b338252868201858152604083018481526060840190881515968783526080860194428652805490600160401b8210156106b2578f820181556104ee9190611930565b96909661069f575186549451925193516001600160b81b031990951691161760a09190911b60ff60a01b161760a89190911b60ff60a81b161790151560b01b60ff60b01b1617825551908901556040805193845285840191909152820152339085907f3054c4059fdafd84bd2ade27c80de3fc92a1e1cd8503fbc3d8425eb00460f8fc90606090a3156106945782855260068152604085203386528152604085208460ff1982541617905533837f638a014c19f58a705adfdf3c8350f6eecbcab57edc63f1112fef5828840730eb8780a38285526005815260408520916105d484612122565b9285845111156000146106875760088101805462ff00001916620100001790558101549081158280048714171561067457509161065f9161063a8460647fbb46215af351898408a114360f0c9b357ef9e966c86f58086e64a66b0e6ba4de960490611bd0565b8251801561066c5761064b91611bb0565b604051938493604085526040850190611978565b918301520390a25b805580f35b50508661064b565b634e487b7160e01b875260119052602486fd5b5050505061066790611f16565b505061066790611f16565b50634e487b7160e01b8f528e8c5260248ffd5b5050634e487b7160e01b8f5260418c5260248ffd5b60405162461bcd60e51b81528087018690526015602482015274151a5b1948185b1c9958591e481c995d99585b1959605a1b6044820152606490fd5b60405162461bcd60e51b81528087018690526013602482015272496e76616c696420636f6f7264696e6174657360681b6044820152606490fd5b90508482161038610430565b60405162461bcd60e51b8152808701869052600c60248201526b151d5c9b88195e1c1a5c995960a21b6044820152606490fd5b60405162461bcd60e51b8152808701869052600d60248201526c2737ba103cb7bab9103a3ab93760991b6044820152606490fd5b60101c1615905084386103ba565b50602090816003193601126109b3578035916107d8611ac4565b6107e0611aa6565b828452600581526040842090600882015460ff8160081c166109785760101c60ff166109455760028201805460ff6005850154161115610915578486526007825260408620338752825260ff6040872054166108e057600383015434036108a65761084c903390611a55565b8385526007815260408520903386525260408420600160ff1982541617905501610877348254611ae7565b905533907f87969bc7faf902221a147b95ceba76e011c5efb0339a0a8ee7a2bb82d9cfbbd68380a36001805580f35b60405162461bcd60e51b81528085018390526013602482015272496e636f727265637420656e7472792066656560681b6044820152606490fd5b60405162461bcd60e51b8152808501839052600e60248201526d105b1c9958591e481a9bda5b995960921b6044820152606490fd5b60405162461bcd60e51b8152808501839052600960248201526811d85b5948199d5b1b60ba1b6044820152606490fd5b826064916040519162461bcd60e51b8352820152600d60248201526c11d85b5948199a5b9a5cda1959609a1b6044820152fd5b60405162461bcd60e51b8152808501839052601460248201527311d85b5948185b1c9958591e481cdd185c9d195960621b6044820152606490fd5b8280fd5b50346102df576020806003193601126109b3578135916109d5611ac4565b6109dd611aa6565b828452600582526040842060018101549091906001600160a01b03163303610ae757600882019081549060ff8260081c16610ab15760028085015410610a785750906101007fa2dfaa3573b86004ec9d4d4abe5068d942579c59da4da8cd0d9e45e71a393bc194939261ff0019161790556006610a5e600783015442611ae7565b910155610a6a83611c87565b604051428152a26001805580f35b60405162461bcd60e51b815290810185905260126024820152714e6f7420656e6f75676820706c617965727360701b6044820152606490fd5b60405162461bcd60e51b8152908101859052600f60248201526e105b1c9958591e481cdd185c9d1959608a1b6044820152606490fd5b60405162461bcd60e51b8152908101839052601660248201527513db9b1e4818dc99585d1bdc8818d85b881cdd185c9d60521b6044820152606490fd5b50346102df5760403660031901126102df57604060209260ff92610b46611962565b90358252600885528282206001600160a01b03909116825284522054604051911615158152f35b509034610cb2576020366003190112610cb2578135610b8a611ac4565b610b92611aa6565b808252600560205260408220610bba600882015460ff8160081c169081610ca3575b50611af4565b818352600660205260408320338452602052610bdd60ff60408520541615611b32565b6002810160ff600583015460101c1694610bf78683611a3d565b90546001600160a01b039460039290921b1c84163314908115610c95575b5015610c635750610c5c9394610c2a91611a3d565b90549060031b1c16817f78d563416c0d6c2454e9c81222ee1e58f6c3ff4dfcfa798d85d391e57023ecc98580a3611f16565b6001805580f35b60649060206040519162461bcd60e51b8352820152600b60248201526a043616e6e6f7420736b69760ac1b6044820152fd5b600691500154421138610c15565b60ff915060101c161538610bb4565b80fd5b50346102df5760403660031901126102df57604060209260ff92610cd7611962565b90358252600685528282206001600160a01b03909116825284522054604051911615158152f35b50346102df5760403660031901126102df579060609135610d1d611962565b9181815260ff6040602092600784528181209560018060a01b03169586825284528282822054169585825260068552828220818352855283838320541695825260088552828220908252845220541691604051931515845215159083015215156040820152f35b8234610cb25780600319360112610cb257546040516001600160a01b039091168152602090f35b8234610cb25780600319360112610cb257610dc46119b5565b610dcc611aa6565b600160ff1960025416176002557f62e78cea01bee320cd4e420270b5ea74000d11b0c9f74754ebdbfc544b05a2586020604051338152a180f35b8234610cb25780600319360112610cb257610e1f6119b5565b80546001600160a01b03198116825581906001600160a01b03167f8be0079c531659141344cd1fd0a4f28419497f9722a3daafe3b4186f6b6457e08280a380f35b509034610cb257602091826003193601126102df57829035825260098152604082208054610e8d81611c5b565b90610e9b6040519283611b8e565b8082528382018093865284862086915b838310610f2a57505050506040519280840191818552518092526040840192945b828110610ed95784840385f35b855180516001600160a01b031685528083015160ff9081168685015260408083015190911690860152606080820151151590860152608090810151908501529481019460a090930192600101610ecc565b60028760019260409a9997989a51610f4181611b72565b8554858060a01b038116825260ff90818160a01c1685840152818160a81c16604084015260b01c16151560608201528486015460808201528152019201920191909694939596610eab565b50346102df5760403660031901126102df57604060209260ff92610fae611962565b90358252600785528282206001600160a01b03909116825284522054604051911615158152f35b50346102df57602090816003193601126109b357803591610ff4611ac4565b828452600581526040842060ff600882015460101c16156111dc578385526006825260408520338652825260ff6040862054166111a0578385526007825260408520338652825260ff6040862054161561116d578385526008825260408520338652825260ff6040862054166111375761106d84612122565b908151156111065783015491828004600114831517156110f35785808681966110e06110d988859886986110b36110ab6064610c5c9e048095611bd0565b835190611bb0565b9688526008815260408820903389525260408720600160ff198254161790555190611bb0565b8254611ae7565b9055335af16110ed611bdd565b50611c1d565b634e487b7160e01b865260118452602486fd5b60405162461bcd60e51b8152808501849052600a6024820152694e6f2077696e6e65727360b01b6044820152606490fd5b60405162461bcd60e51b8152808401839052600f60248201526e105b1c9958591e4818db185a5b5959608a1b6044820152606490fd5b60405162461bcd60e51b8152808401839052600c60248201526b2737ba103090383630bcb2b960a11b6044820152606490fd5b60405162461bcd60e51b81528084018390526015602482015274141b185e595c881dd85cc8195b1a5b5a5b985d1959605a1b6044820152606490fd5b60405162461bcd60e51b8152808401839052601160248201527011d85b59481b9bdd08199a5b9a5cda1959607a1b6044820152606490fd5b50346102df57816003193601126102df5760209054604051908152f35b8234610cb25780600319360112610cb257602060ff600254166040519015158152f35b8234610cb25760ff604060209261126a366118fd565b918352600a865284848420911683528552838383209116825284522054166040519015158152f35b50906080366003190112610cb257813560249081359160ff831680930361036b576044359260643591821515809303611558576112cd611ac4565b6112d5611aa6565b60028210158061154d575b1561151357600a85101580611508575b156114cd57833403611495578315611452576003549461130f866119e1565b60035585875260056020526113816040882087815560018101336bffffffffffffffffffffffff60a01b82541617905586600382015560058101805493600783015561010086600884019560ff19968781541660ff8c1617905561ffff191617179055868a8201556002339101611a55565b85875260076020526040872033885260205260016040882091825416179055600b5496600160401b8810156114415750506113c486600160209801600b55611a06565b81549060031b9086821b91600019901b1916179055604051928352858301526040820152817fecbf611c0167855f525028668676ec0497e5aabb4941b80e5c9c6919a17ea0c360603393a360405191817f87969bc7faf902221a147b95ceba76e011c5efb0339a0a8ee7a2bb82d9cfbbd6339280a3600180558152f35b634e487b7160e01b87526041905285fd5b86601a60649260206040519362461bcd60e51b85528401528201527f456e74727920666565206d75737420626520706f7369746976650000000000006044820152fd5b86601260649260206040519362461bcd60e51b85528401528201527108adce8e4f240cccaca40dad2e6dac2e8c6d60731b6044820152fd5b86601560649260206040519362461bcd60e51b85528401528201527424b73b30b634b2103a3ab93710323ab930ba34b7b760591b6044820152fd5b50601e8511156112f0565b86601460649260206040519362461bcd60e51b855284015282015273125b9d985b1a59081c1b185e595c8818dbdd5b9d60621b6044820152fd5b50600a8211156112e0565b8580fd5b50346102df57816003193601126102df576115756119b5565b80549081156115a05782808061159d948180955560018060a01b038254165af16110ed611bdd565b80f35b60649060206040519162461bcd60e51b835282015260136024820152724e6f206665657320746f20776974686472617760681b6044820152fd5b50346102df57816003193601126102df576115f36119b5565b6002549060ff821615611635575060ff19166002557f5db9ee0a495bf2e6ff9c91a7834c1ba4fdd244a5e8aa4e537bd38aeae4b073aa6020604051338152a180f35b604051638dfc202b60e01b8152fd5b509034610cb2576040366003190112610cb25760243591358152600960205260408120908154831015610cb25760a061167d8484611930565b506001815491015460ff60405192600180861b03811684528181861c166020850152818160a81c16604085015260b01c16151560608301526080820152f35b8234610cb25780600319360112610cb257600b5481805b8281106117c957506116fd6116e784611c5b565b936116f56040519586611b8e565b808552611c5b565b6020928484019291601f190136843781825b8281106117575750505060405193838594850191818652518092526040850193925b82811061174057505050500390f35b835185528695509381019392810192600101611731565b611765819795969497611a06565b9054600391821b1c88526005855260ff600860408a20015460101c161561179b575b50611791906119e1565b959294939561170f565b81926117c2916117ad61179194611a06565b9054911b1c6117bc8289611c73565b526119e1565b9190611787565b6117d581949294611a06565b90549060031b1c8452600560205260ff600860408620015460101c1615611808575b611800906119e1565b9290926116d3565b90611815611800916119e1565b9190506117f7565b919050346109b35760203660031901126109b35760406101e0938235815260056020522080549060018060a01b036001820154169260038201549082015493600583015491600684015495600785015491600886015493600a6009880154970154978a5260208a01526040890152606088015260ff9586848180961660808b0152818160081c1660a08b015260101c1660c089015260e08801526101008701528181161515610120870152818160081c16151561014087015260101c1615156101608501526101808401528181166101a084015260081c166101c0820152f35b606090600319011261192b576004359060243560ff8116810361192b579060443560ff8116810361192b5790565b600080fd5b805482101561194c5760005260206000209060011b0190600090565b634e487b7160e01b600052603260045260246000fd5b602435906001600160a01b038216820361192b57565b90815180825260208080930193019160005b828110611998575050505090565b83516001600160a01b03168552938101939281019260010161198a565b6000546001600160a01b031633036119c957565b60405163118cdaa760e01b8152336004820152602490fd5b60001981146119f05760010190565b634e487b7160e01b600052601160045260246000fd5b600b5481101561194c57600b6000527f0175b7a638427703f0dbe7bb9bbf987a2551717b34e79f33b5b1008d1fa01db90190600090565b805482101561194c5760005260206000200190600090565b8054600160401b811015611a9057611a7291600182018155611a3d565b819291549060031b9160018060a01b03809116831b921b1916179055565b634e487b7160e01b600052604160045260246000fd5b60ff60025416611ab257565b60405163d93c066560e01b8152600490fd5b600260015414611ad5576002600155565b604051633ee5aeb560e01b8152600490fd5b919082018092116119f057565b15611afb57565b60405162461bcd60e51b815260206004820152600f60248201526e47616d65206e6f742061637469766560881b6044820152606490fd5b15611b3957565b60405162461bcd60e51b8152602060048201526011602482015270141b185e595c88195b1a5b5a5b985d1959607a1b6044820152606490fd5b60a0810190811067ffffffffffffffff821117611a9057604052565b90601f8019910116810190811067ffffffffffffffff821117611a9057604052565b8115611bba570490565b634e487b7160e01b600052601260045260246000fd5b919082039182116119f057565b3d15611c18573d9067ffffffffffffffff8211611a905760405191611c0c601f8201601f191660200184611b8e565b82523d6000602084013e565b606090565b15611c2457565b60405162461bcd60e51b815260206004820152600f60248201526e151c985b9cd9995c8819985a5b1959608a1b6044820152606490fd5b67ffffffffffffffff8111611a905760051b60200190565b805182101561194c5760209160051b010190565b9060009180835260056020526040832090611ca56002830154611d87565b90816005850192600160ff855460081c1611611d4c575b50600a8501805461ffff191660ff9093169290921760089190911b61ff00161790555b54604051906020820192448452426040840152606083015260ff60f81b9060f01b1660808201524360818201526081815260c0810181811067ffffffffffffffff821117611d3857600993949550604052519020910155565b634e487b7160e01b86526041600452602486fd5b60ff915016607881029080820460781490151715611d73576064900460ff16611cdf611cbc565b634e487b7160e01b87526011600452602487fd5b6002811115611dcb576004811115611dc2576006811115611dba5760081015611db257600c90601290565b600a90600c90565b506008908190565b50600690600590565b50600590600390565b8115611bba570690565b91929092600092835260209360058552604093848120948196600a8701549060ff938483169384800293858504861486151715611ef1576009839c959b0154945b8b8d1080611ee3575b15611ed3578c835186810191888352858201528481526060810181811067ffffffffffffffff821117611ebf57855251902088611e748982611e6a8286611dd4565b169360081c611dd4565b1690898b16149081611eb3575b50611ea157611e99611e9389926119e1565b9d6119e1565b9c9050611e1f565b50505050505050505050915050600190565b9050888b161438611e81565b634e487b7160e01b87526041600452602487fd5b5050509750505050505050915090565b50878260081c168110611e28565b634e487b7160e01b83526011600452602483fd5b60ff1660ff81146119f05760010190565b600081815260056020818152604080842094929360019260029290919081888801858a0187805b611f62575b50505050505050505050506006611f5d600783015442611ae7565b910155565b156120e0575b8260ff8354968a826010998a1c1601828111611d735790611fab83611f94611fb0948289549116611dd4565b885462ff00001916911660101b62ff000016178755565b611f05565b9683548289161015611fc457505088611f3d565b94959650969798999a9b5050505087825288855286838320998a019661203161201b878a5460081c168c7fb8a5eda082a9bead12e2aad412cc2910ce57ba364f92a818c8185e9ca9185c4d8b8a51848152a2611f05565b895461ff00191660089190911b61ff0016178955565b875462ff0000191688558a01975b612065575b505050505050505061205590611c87565b6006611f5d600783015442611ae7565b848754831c1688548110806120aa575b156120a45761208661209e91611f05565b885462ff0000191660109190911b62ff000016178855565b8061203f565b50612044565b50898452600687528484206120bf828b611a3d565b905460039190911b1c6001600160a01b031685528752848420548616612075565b8883526006865283832060ff906120fd82855460101c1684611a3d565b905460039190911b1c6001600160a01b0316855287528484205416611f685780611f42565b60008181526005602090815260408083206002018054939485939092845b8681106121fe575061215187611c5b565b9661215e82519889611b8e565b80885261216d601f1991611c5b565b0136838901378493855b87811061218957505050505050505090565b8187526006845282872061219d8287611a3d565b9054600391821b1c6001600160a01b039081168a529186528489205460ff16156121d2575b50506121cd906119e1565b612177565b966121f69183986121e66121cd958a611a3d565b9054911b1c166117bc828d611c73565b9590386121c2565b848652600683528186206122128286611a3d565b905460039190911b1c6001600160a01b0316875283528186205460ff1615612243575b61223e906119e1565b612140565b9661225061223e916119e1565b97905061223556fea2646970667358221220b2fd508712e4460fc2540c4ca20723e0727b011d585fb330218e0e3efdb4e81564736f6c63430008140033",
  "linkReferences": {},
  "deployedLinkReferences": {}
}